{
  "contractName": "CreateNFT",
  "abi": [
    {
      "inputs": [
        {
          "internalType": "string",
          "name": "_name",
          "type": "string"
        },
        {
          "internalType": "string",
          "name": "_symbol",
          "type": "string"
        },
        {
          "internalType": "string",
          "name": "_contractUri",
          "type": "string"
        },
        {
          "internalType": "address",
          "name": "_operator",
          "type": "address"
        },
        {
          "internalType": "address",
          "name": "_owner",
          "type": "address"
        }
      ],
      "stateMutability": "nonpayable",
      "type": "constructor"
    },
    {
      "anonymous": false,
      "inputs": [
        {
          "indexed": true,
          "internalType": "address",
          "name": "owner",
          "type": "address"
        },
        {
          "indexed": true,
          "internalType": "address",
          "name": "approved",
          "type": "address"
        },
        {
          "indexed": true,
          "internalType": "uint256",
          "name": "tokenId",
          "type": "uint256"
        }
      ],
      "name": "Approval",
      "type": "event"
    },
    {
      "anonymous": false,
      "inputs": [
        {
          "indexed": true,
          "internalType": "address",
          "name": "owner",
          "type": "address"
        },
        {
          "indexed": true,
          "internalType": "address",
          "name": "operator",
          "type": "address"
        },
        {
          "indexed": false,
          "internalType": "bool",
          "name": "approved",
          "type": "bool"
        }
      ],
      "name": "ApprovalForAll",
      "type": "event"
    },
    {
      "anonymous": false,
      "inputs": [
        {
          "indexed": true,
          "internalType": "address",
          "name": "owner",
          "type": "address"
        },
        {
          "indexed": false,
          "internalType": "uint256",
          "name": "tokenId",
          "type": "uint256"
        }
      ],
      "name": "Excluded",
      "type": "event"
    },
    {
      "anonymous": false,
      "inputs": [
        {
          "indexed": true,
          "internalType": "address",
          "name": "from",
          "type": "address"
        },
        {
          "indexed": true,
          "internalType": "address",
          "name": "to",
          "type": "address"
        },
        {
          "indexed": true,
          "internalType": "uint256",
          "name": "tokenId",
          "type": "uint256"
        }
      ],
      "name": "Transfer",
      "type": "event"
    },
    {
      "inputs": [
        {
          "internalType": "address",
          "name": "to",
          "type": "address"
        },
        {
          "internalType": "uint256",
          "name": "tokenId",
          "type": "uint256"
        }
      ],
      "name": "approve",
      "outputs": [],
      "stateMutability": "nonpayable",
      "type": "function"
    },
    {
      "inputs": [
        {
          "internalType": "address",
          "name": "owner",
          "type": "address"
        }
      ],
      "name": "balanceOf",
      "outputs": [
        {
          "internalType": "uint256",
          "name": "",
          "type": "uint256"
        }
      ],
      "stateMutability": "view",
      "type": "function",
      "constant": true
    },
    {
      "inputs": [
        {
          "internalType": "uint256",
          "name": "tokenId",
          "type": "uint256"
        }
      ],
      "name": "getApproved",
      "outputs": [
        {
          "internalType": "address",
          "name": "",
          "type": "address"
        }
      ],
      "stateMutability": "view",
      "type": "function",
      "constant": true
    },
    {
      "inputs": [
        {
          "internalType": "address",
          "name": "owner",
          "type": "address"
        },
        {
          "internalType": "address",
          "name": "operator",
          "type": "address"
        }
      ],
      "name": "isApprovedForAll",
      "outputs": [
        {
          "internalType": "bool",
          "name": "",
          "type": "bool"
        }
      ],
      "stateMutability": "view",
      "type": "function",
      "constant": true
    },
    {
      "inputs": [],
      "name": "name",
      "outputs": [
        {
          "internalType": "string",
          "name": "",
          "type": "string"
        }
      ],
      "stateMutability": "view",
      "type": "function",
      "constant": true
    },
    {
      "inputs": [
        {
          "internalType": "uint256",
          "name": "tokenId",
          "type": "uint256"
        }
      ],
      "name": "ownerOf",
      "outputs": [
        {
          "internalType": "address",
          "name": "",
          "type": "address"
        }
      ],
      "stateMutability": "view",
      "type": "function",
      "constant": true
    },
    {
      "inputs": [
        {
          "internalType": "uint256",
          "name": "",
          "type": "uint256"
        }
      ],
      "name": "royaltyInfo",
      "outputs": [
        {
          "internalType": "address",
          "name": "creator",
          "type": "address"
        },
        {
          "internalType": "bool",
          "name": "isExcluded",
          "type": "bool"
        },
        {
          "internalType": "uint256",
          "name": "amount",
          "type": "uint256"
        }
      ],
      "stateMutability": "view",
      "type": "function",
      "constant": true
    },
    {
      "inputs": [
        {
          "internalType": "address",
          "name": "from",
          "type": "address"
        },
        {
          "internalType": "address",
          "name": "to",
          "type": "address"
        },
        {
          "internalType": "uint256",
          "name": "tokenId",
          "type": "uint256"
        }
      ],
      "name": "safeTransferFrom",
      "outputs": [],
      "stateMutability": "nonpayable",
      "type": "function"
    },
    {
      "inputs": [
        {
          "internalType": "address",
          "name": "from",
          "type": "address"
        },
        {
          "internalType": "address",
          "name": "to",
          "type": "address"
        },
        {
          "internalType": "uint256",
          "name": "tokenId",
          "type": "uint256"
        },
        {
          "internalType": "bytes",
          "name": "_data",
          "type": "bytes"
        }
      ],
      "name": "safeTransferFrom",
      "outputs": [],
      "stateMutability": "nonpayable",
      "type": "function"
    },
    {
      "inputs": [
        {
          "internalType": "address",
          "name": "operator",
          "type": "address"
        },
        {
          "internalType": "bool",
          "name": "approved",
          "type": "bool"
        }
      ],
      "name": "setApprovalForAll",
      "outputs": [],
      "stateMutability": "nonpayable",
      "type": "function"
    },
    {
      "inputs": [
        {
          "internalType": "bytes4",
          "name": "interfaceId",
          "type": "bytes4"
        }
      ],
      "name": "supportsInterface",
      "outputs": [
        {
          "internalType": "bool",
          "name": "",
          "type": "bool"
        }
      ],
      "stateMutability": "view",
      "type": "function",
      "constant": true
    },
    {
      "inputs": [],
      "name": "symbol",
      "outputs": [
        {
          "internalType": "string",
          "name": "",
          "type": "string"
        }
      ],
      "stateMutability": "view",
      "type": "function",
      "constant": true
    },
    {
      "inputs": [
        {
          "internalType": "uint256",
          "name": "tokenId",
          "type": "uint256"
        }
      ],
      "name": "tokenURI",
      "outputs": [
        {
          "internalType": "string",
          "name": "",
          "type": "string"
        }
      ],
      "stateMutability": "view",
      "type": "function",
      "constant": true
    },
    {
      "inputs": [
        {
          "internalType": "address",
          "name": "from",
          "type": "address"
        },
        {
          "internalType": "address",
          "name": "to",
          "type": "address"
        },
        {
          "internalType": "uint256",
          "name": "tokenId",
          "type": "uint256"
        }
      ],
      "name": "transferFrom",
      "outputs": [],
      "stateMutability": "nonpayable",
      "type": "function"
    },
    {
      "inputs": [
        {
          "internalType": "string",
          "name": "_tokenURI",
          "type": "string"
        },
        {
          "internalType": "uint256",
          "name": "royaltyAmount",
          "type": "uint256"
        }
      ],
      "name": "mint",
      "outputs": [],
      "stateMutability": "nonpayable",
      "type": "function"
    },
    {
      "inputs": [
        {
          "internalType": "bool",
          "name": "value",
          "type": "bool"
        },
        {
          "internalType": "uint256",
          "name": "tokenId",
          "type": "uint256"
        }
      ],
      "name": "setExcluded",
      "outputs": [],
      "stateMutability": "nonpayable",
      "type": "function"
    },
    {
      "inputs": [
        {
          "internalType": "uint256",
          "name": "tokenId",
          "type": "uint256"
        }
      ],
      "name": "burn",
      "outputs": [],
      "stateMutability": "nonpayable",
      "type": "function"
    }
  ],
  "bytecode": "0x60806040523480156200001157600080fd5b50604051620039fc380380620039fc833981810160405281019062000037919062000258565b848481600090805190602001906200005192919062000113565b5080600190805190602001906200006a92919062000113565b50505082600890805190602001906200008592919062000113565b5081600a60006101000a81548173ffffffffffffffffffffffffffffffffffffffff021916908373ffffffffffffffffffffffffffffffffffffffff16021790555080600960006101000a81548173ffffffffffffffffffffffffffffffffffffffff021916908373ffffffffffffffffffffffffffffffffffffffff16021790555050505050506200050f565b828054620001219062000406565b90600052602060002090601f01602090048101928262000145576000855562000191565b82601f106200016057805160ff191683800117855562000191565b8280016001018555821562000191579182015b828111156200019057825182559160200191906001019062000173565b5b509050620001a09190620001a4565b5090565b5b80821115620001bf576000816000905550600101620001a5565b5090565b6000620001da620001d48462000366565b6200033d565b905082815260208101848484011115620001f957620001f8620004d5565b5b62000206848285620003d0565b509392505050565b6000815190506200021f81620004f5565b92915050565b600082601f8301126200023d576200023c620004d0565b5b81516200024f848260208601620001c3565b91505092915050565b600080600080600060a08688031215620002775762000276620004df565b5b600086015167ffffffffffffffff811115620002985762000297620004da565b5b620002a68882890162000225565b955050602086015167ffffffffffffffff811115620002ca57620002c9620004da565b5b620002d88882890162000225565b945050604086015167ffffffffffffffff811115620002fc57620002fb620004da565b5b6200030a8882890162000225565b93505060606200031d888289016200020e565b925050608062000330888289016200020e565b9150509295509295909350565b6000620003496200035c565b90506200035782826200043c565b919050565b6000604051905090565b600067ffffffffffffffff821115620003845762000383620004a1565b5b6200038f82620004e4565b9050602081019050919050565b6000620003a982620003b0565b9050919050565b600073ffffffffffffffffffffffffffffffffffffffff82169050919050565b60005b83811015620003f0578082015181840152602081019050620003d3565b8381111562000400576000848401525b50505050565b600060028204905060018216806200041f57607f821691505b6020821081141562000436576200043562000472565b5b50919050565b6200044782620004e4565b810181811067ffffffffffffffff82111715620004695762000468620004a1565b5b80604052505050565b7f4e487b7100000000000000000000000000000000000000000000000000000000600052602260045260246000fd5b7f4e487b7100000000000000000000000000000000000000000000000000000000600052604160045260246000fd5b600080fd5b600080fd5b600080fd5b600080fd5b6000601f19601f8301169050919050565b62000500816200039c565b81146200050c57600080fd5b50565b6134dd806200051f6000396000f3fe608060405234801561001057600080fd5b506004361061010b5760003560e01c80636352211e116100a2578063b88d4fde11610071578063b88d4fde146102b4578063c87b56dd146102d0578063cef6d36814610300578063e8d8c91614610332578063e985e9c51461034e5761010b565b80636352211e1461021a57806370a082311461024a57806395d89b411461027a578063a22cb465146102985761010b565b8063095ea7b3116100de578063095ea7b3146101aa57806323b872dd146101c657806342842e0e146101e257806342966c68146101fe5761010b565b806301ffc9a714610110578063056b01ce1461014057806306fdde031461015c578063081812fc1461017a575b600080fd5b61012a6004803603810190610125919061228c565b61037e565b60405161013791906127e0565b60405180910390f35b61015a600480360381019061015591906122e6565b610460565b005b6101646106a7565b60405161017191906127fb565b60405180910390f35b610194600480360381019061018f9190612342565b610739565b6040516101a19190612742565b60405180910390f35b6101c460048036038101906101bf919061220c565b6107be565b005b6101e060048036038101906101db91906120f6565b6108d6565b005b6101fc60048036038101906101f791906120f6565b610936565b005b61021860048036038101906102139190612342565b610956565b005b610234600480360381019061022f9190612342565b6109d8565b6040516102419190612742565b60405180910390f35b610264600480360381019061025f9190612089565b610a8a565b6040516102719190612abd565b60405180910390f35b610282610b42565b60405161028f91906127fb565b60405180910390f35b6102b260048036038101906102ad91906121cc565b610bd4565b005b6102ce60048036038101906102c99190612149565b610d55565b005b6102ea60048036038101906102e59190612342565b610db7565b6040516102f791906127fb565b60405180910390f35b61031a60048036038101906103159190612342565b610f09565b604051610329939291906127a9565b60405180910390f35b61034c6004803603810190610347919061224c565b610f60565b005b610368600480360381019061036391906120b6565b6110de565b60405161037591906127e0565b60405180910390f35b60007f80ac58cd000000000000000000000000000000000000000000000000000000007bffffffffffffffffffffffffffffffffffffffffffffffffffffffff1916827bffffffffffffffffffffffffffffffffffffffffffffffffffffffff1916148061044957507f5b5e139f000000000000000000000000000000000000000000000000000000007bffffffffffffffffffffffffffffffffffffffffffffffffffffffff1916827bffffffffffffffffffffffffffffffffffffffffffffffffffffffff1916145b80610459575061045882611172565b5b9050919050565b600a60009054906101000a900473ffffffffffffffffffffffffffffffffffffffff1673ffffffffffffffffffffffffffffffffffffffff16600960009054906101000a900473ffffffffffffffffffffffffffffffffffffffff1673ffffffffffffffffffffffffffffffffffffffff1614610568573373ffffffffffffffffffffffffffffffffffffffff16600960009054906101000a900473ffffffffffffffffffffffffffffffffffffffff1673ffffffffffffffffffffffffffffffffffffffff1614610567576040517f08c379a000000000000000000000000000000000000000000000000000000000815260040161055e90612a9d565b60405180910390fd5b5b6000811015801561057a575060328111155b6105b9576040517f08c379a00000000000000000000000000000000000000000000000000000000081526004016105b090612a5d565b60405180910390fd5b6105c360076111dc565b60006105cf60076111f2565b90506105db3382611200565b6105e581846113ce565b610612600a60009054906101000a900473ffffffffffffffffffffffffffffffffffffffff166001610bd4565b6000600b60008381526020019081526020016000209050338160000160006101000a81548173ffffffffffffffffffffffffffffffffffffffff021916908373ffffffffffffffffffffffffffffffffffffffff16021790555060008314156106975760018160000160146101000a81548160ff0219169083151502179055506106a1565b8281600101819055505b50505050565b6060600080546106b690612d13565b80601f01602080910402602001604051908101604052809291908181526020018280546106e290612d13565b801561072f5780601f106107045761010080835404028352916020019161072f565b820191906000526020600020905b81548152906001019060200180831161071257829003601f168201915b5050505050905090565b600061074482611442565b610783576040517f08c379a000000000000000000000000000000000000000000000000000000000815260040161077a906129dd565b60405180910390fd5b6004600083815260200190815260200160002060009054906101000a900473ffffffffffffffffffffffffffffffffffffffff169050919050565b60006107c9826109d8565b90508073ffffffffffffffffffffffffffffffffffffffff168373ffffffffffffffffffffffffffffffffffffffff16141561083a576040517f08c379a000000000000000000000000000000000000000000000000000000000815260040161083190612a3d565b60405180910390fd5b8073ffffffffffffffffffffffffffffffffffffffff166108596114ae565b73ffffffffffffffffffffffffffffffffffffffff1614806108885750610887816108826114ae565b6110de565b5b6108c7576040517f08c379a00000000000000000000000000000000000000000000000000000000081526004016108be9061291d565b60405180910390fd5b6108d183836114b6565b505050565b6108e76108e16114ae565b8261156f565b610926576040517f08c379a000000000000000000000000000000000000000000000000000000000815260040161091d90612a7d565b60405180910390fd5b61093183838361164d565b505050565b61095183838360405180602001604052806000815250610d55565b505050565b3373ffffffffffffffffffffffffffffffffffffffff16610976826109d8565b73ffffffffffffffffffffffffffffffffffffffff16146109cc576040517f08c379a00000000000000000000000000000000000000000000000000000000081526004016109c39061281d565b60405180910390fd5b6109d5816118a9565b50565b6000806002600084815260200190815260200160002060009054906101000a900473ffffffffffffffffffffffffffffffffffffffff169050600073ffffffffffffffffffffffffffffffffffffffff168173ffffffffffffffffffffffffffffffffffffffff161415610a81576040517f08c379a0000000000000000000000000000000000000000000000000000000008152600401610a789061295d565b60405180910390fd5b80915050919050565b60008073ffffffffffffffffffffffffffffffffffffffff168273ffffffffffffffffffffffffffffffffffffffff161415610afb576040517f08c379a0000000000000000000000000000000000000000000000000000000008152600401610af29061293d565b60405180910390fd5b600360008373ffffffffffffffffffffffffffffffffffffffff1673ffffffffffffffffffffffffffffffffffffffff168152602001908152602001600020549050919050565b606060018054610b5190612d13565b80601f0160208091040260200160405190810160405280929190818152602001828054610b7d90612d13565b8015610bca5780601f10610b9f57610100808354040283529160200191610bca565b820191906000526020600020905b815481529060010190602001808311610bad57829003601f168201915b5050505050905090565b610bdc6114ae565b73ffffffffffffffffffffffffffffffffffffffff168273ffffffffffffffffffffffffffffffffffffffff161415610c4a576040517f08c379a0000000000000000000000000000000000000000000000000000000008152600401610c41906128dd565b60405180910390fd5b8060056000610c576114ae565b73ffffffffffffffffffffffffffffffffffffffff1673ffffffffffffffffffffffffffffffffffffffff16815260200190815260200160002060008473ffffffffffffffffffffffffffffffffffffffff1673ffffffffffffffffffffffffffffffffffffffff16815260200190815260200160002060006101000a81548160ff0219169083151502179055508173ffffffffffffffffffffffffffffffffffffffff16610d046114ae565b73ffffffffffffffffffffffffffffffffffffffff167f17307eab39ab6107e8899845ad3d59bd9653f200f220920489ca2b5937696c3183604051610d4991906127e0565b60405180910390a35050565b610d66610d606114ae565b8361156f565b610da5576040517f08c379a0000000000000000000000000000000000000000000000000000000008152600401610d9c90612a7d565b60405180910390fd5b610db1848484846118fc565b50505050565b6060610dc282611442565b610e01576040517f08c379a0000000000000000000000000000000000000000000000000000000008152600401610df8906129bd565b60405180910390fd5b6000600660008481526020019081526020016000208054610e2190612d13565b80601f0160208091040260200160405190810160405280929190818152602001828054610e4d90612d13565b8015610e9a5780601f10610e6f57610100808354040283529160200191610e9a565b820191906000526020600020905b815481529060010190602001808311610e7d57829003601f168201915b505050505090506000610eab611958565b9050600081511415610ec1578192505050610f04565b600082511115610ef6578082604051602001610ede92919061271e565b60405160208183030381529060405292505050610f04565b610eff84611995565b925050505b919050565b600b6020528060005260406000206000915090508060000160009054906101000a900473ffffffffffffffffffffffffffffffffffffffff16908060000160149054906101000a900460ff16908060010154905083565b3373ffffffffffffffffffffffffffffffffffffffff16600b600083815260200190815260200160002060000160009054906101000a900473ffffffffffffffffffffffffffffffffffffffff1673ffffffffffffffffffffffffffffffffffffffff1614611004576040517f08c379a0000000000000000000000000000000000000000000000000000000008152600401610ffb9061289d565b60405180910390fd5b6000600b600083815260200190815260200160002060010154141561105e576040517f08c379a00000000000000000000000000000000000000000000000000000000081526004016110559061285d565b60405180910390fd5b81600b600083815260200190815260200160002060000160146101000a81548160ff0219169083151502179055503373ffffffffffffffffffffffffffffffffffffffff167fad7f145777ce4d0af2388cfccbec6e35925f6bff26a9fa167fb64f9dcc1a1b22826040516110d29190612abd565b60405180910390a25050565b6000600560008473ffffffffffffffffffffffffffffffffffffffff1673ffffffffffffffffffffffffffffffffffffffff16815260200190815260200160002060008373ffffffffffffffffffffffffffffffffffffffff1673ffffffffffffffffffffffffffffffffffffffff16815260200190815260200160002060009054906101000a900460ff16905092915050565b60007f01ffc9a7000000000000000000000000000000000000000000000000000000007bffffffffffffffffffffffffffffffffffffffffffffffffffffffff1916827bffffffffffffffffffffffffffffffffffffffffffffffffffffffff1916149050919050565b6001816000016000828254019250508190555050565b600081600001549050919050565b600073ffffffffffffffffffffffffffffffffffffffff168273ffffffffffffffffffffffffffffffffffffffff161415611270576040517f08c379a00000000000000000000000000000000000000000000000000000000081526004016112679061299d565b60405180910390fd5b61127981611442565b156112b9576040517f08c379a00000000000000000000000000000000000000000000000000000000081526004016112b09061287d565b60405180910390fd5b6112c560008383611a3c565b6001600360008473ffffffffffffffffffffffffffffffffffffffff1673ffffffffffffffffffffffffffffffffffffffff16815260200190815260200160002060008282546113159190612ba2565b92505081905550816002600083815260200190815260200160002060006101000a81548173ffffffffffffffffffffffffffffffffffffffff021916908373ffffffffffffffffffffffffffffffffffffffff160217905550808273ffffffffffffffffffffffffffffffffffffffff16600073ffffffffffffffffffffffffffffffffffffffff167fddf252ad1be2c89b69c2b068fc378daa952ba7f163c4a11628f55a4df523b3ef60405160405180910390a45050565b6113d782611442565b611416576040517f08c379a000000000000000000000000000000000000000000000000000000000815260040161140d9061297d565b60405180910390fd5b8060066000848152602001908152602001600020908051906020019061143d929190611e5d565b505050565b60008073ffffffffffffffffffffffffffffffffffffffff166002600084815260200190815260200160002060009054906101000a900473ffffffffffffffffffffffffffffffffffffffff1673ffffffffffffffffffffffffffffffffffffffff1614159050919050565b600033905090565b816004600083815260200190815260200160002060006101000a81548173ffffffffffffffffffffffffffffffffffffffff021916908373ffffffffffffffffffffffffffffffffffffffff160217905550808273ffffffffffffffffffffffffffffffffffffffff16611529836109d8565b73ffffffffffffffffffffffffffffffffffffffff167f8c5be1e5ebec7d5bd14f71427d1e84f3dd0314c0f7b2291e5b200ac8c7c3b92560405160405180910390a45050565b600061157a82611442565b6115b9576040517f08c379a00000000000000000000000000000000000000000000000000000000081526004016115b0906128fd565b60405180910390fd5b60006115c4836109d8565b90508073ffffffffffffffffffffffffffffffffffffffff168473ffffffffffffffffffffffffffffffffffffffff16148061163357508373ffffffffffffffffffffffffffffffffffffffff1661161b84610739565b73ffffffffffffffffffffffffffffffffffffffff16145b80611644575061164381856110de565b5b91505092915050565b8273ffffffffffffffffffffffffffffffffffffffff1661166d826109d8565b73ffffffffffffffffffffffffffffffffffffffff16146116c3576040517f08c379a00000000000000000000000000000000000000000000000000000000081526004016116ba906129fd565b60405180910390fd5b600073ffffffffffffffffffffffffffffffffffffffff168273ffffffffffffffffffffffffffffffffffffffff161415611733576040517f08c379a000000000000000000000000000000000000000000000000000000000815260040161172a906128bd565b60405180910390fd5b61173e838383611a3c565b6117496000826114b6565b6001600360008573ffffffffffffffffffffffffffffffffffffffff1673ffffffffffffffffffffffffffffffffffffffff16815260200190815260200160002060008282546117999190612c29565b925050819055506001600360008473ffffffffffffffffffffffffffffffffffffffff1673ffffffffffffffffffffffffffffffffffffffff16815260200190815260200160002060008282546117f09190612ba2565b92505081905550816002600083815260200190815260200160002060006101000a81548173ffffffffffffffffffffffffffffffffffffffff021916908373ffffffffffffffffffffffffffffffffffffffff160217905550808273ffffffffffffffffffffffffffffffffffffffff168473ffffffffffffffffffffffffffffffffffffffff167fddf252ad1be2c89b69c2b068fc378daa952ba7f163c4a11628f55a4df523b3ef60405160405180910390a4505050565b6118b281611a41565b60006006600083815260200190815260200160002080546118d290612d13565b9050146118f9576006600082815260200190815260200160002060006118f89190611ee3565b5b50565b61190784848461164d565b61191384848484611b52565b611952576040517f08c379a00000000000000000000000000000000000000000000000000000000081526004016119499061283d565b60405180910390fd5b50505050565b60606040518060400160405280601c81526020017f68747470733a2f2f697066732e696e667572612e696f2f697066732f00000000815250905090565b60606119a082611442565b6119df576040517f08c379a00000000000000000000000000000000000000000000000000000000081526004016119d690612a1d565b60405180910390fd5b60006119e9611958565b90506000815111611a095760405180602001604052806000815250611a34565b80611a1384611ce9565b604051602001611a2492919061271e565b6040516020818303038152906040525b915050919050565b505050565b6000611a4c826109d8565b9050611a5a81600084611a3c565b611a656000836114b6565b6001600360008373ffffffffffffffffffffffffffffffffffffffff1673ffffffffffffffffffffffffffffffffffffffff1681526020019081526020016000206000828254611ab59190612c29565b925050819055506002600083815260200190815260200160002060006101000a81549073ffffffffffffffffffffffffffffffffffffffff021916905581600073ffffffffffffffffffffffffffffffffffffffff168273ffffffffffffffffffffffffffffffffffffffff167fddf252ad1be2c89b69c2b068fc378daa952ba7f163c4a11628f55a4df523b3ef60405160405180910390a45050565b6000611b738473ffffffffffffffffffffffffffffffffffffffff16611e4a565b15611cdc578373ffffffffffffffffffffffffffffffffffffffff1663150b7a02611b9c6114ae565b8786866040518563ffffffff1660e01b8152600401611bbe949392919061275d565b602060405180830381600087803b158015611bd857600080fd5b505af1925050508015611c0957506040513d601f19601f82011682018060405250810190611c0691906122b9565b60015b611c8c573d8060008114611c39576040519150601f19603f3d011682016040523d82523d6000602084013e611c3e565b606091505b50600081511415611c84576040517f08c379a0000000000000000000000000000000000000000000000000000000008152600401611c7b9061283d565b60405180910390fd5b805181602001fd5b63150b7a0260e01b7bffffffffffffffffffffffffffffffffffffffffffffffffffffffff1916817bffffffffffffffffffffffffffffffffffffffffffffffffffffffff191614915050611ce1565b600190505b949350505050565b60606000821415611d31576040518060400160405280600181526020017f30000000000000000000000000000000000000000000000000000000000000008152509050611e45565b600082905060005b60008214611d63578080611d4c90612d76565b915050600a82611d5c9190612bf8565b9150611d39565b60008167ffffffffffffffff811115611d7f57611d7e612eac565b5b6040519080825280601f01601f191660200182016040528015611db15781602001600182028036833780820191505090505b5090505b60008514611e3e57600182611dca9190612c29565b9150600a85611dd99190612dbf565b6030611de59190612ba2565b60f81b818381518110611dfb57611dfa612e7d565b5b60200101907effffffffffffffffffffffffffffffffffffffffffffffffffffffffffffff1916908160001a905350600a85611e379190612bf8565b9450611db5565b8093505050505b919050565b600080823b905060008111915050919050565b828054611e6990612d13565b90600052602060002090601f016020900481019282611e8b5760008555611ed2565b82601f10611ea457805160ff1916838001178555611ed2565b82800160010185558215611ed2579182015b82811115611ed1578251825591602001919060010190611eb6565b5b509050611edf9190611f23565b5090565b508054611eef90612d13565b6000825580601f10611f015750611f20565b601f016020900490600052602060002090810190611f1f9190611f23565b5b50565b5b80821115611f3c576000816000905550600101611f24565b5090565b6000611f53611f4e84612afd565b612ad8565b905082815260208101848484011115611f6f57611f6e612ee0565b5b611f7a848285612cd1565b509392505050565b6000611f95611f9084612b2e565b612ad8565b905082815260208101848484011115611fb157611fb0612ee0565b5b611fbc848285612cd1565b509392505050565b600081359050611fd38161344b565b92915050565b600081359050611fe881613462565b92915050565b600081359050611ffd81613479565b92915050565b60008151905061201281613479565b92915050565b600082601f83011261202d5761202c612edb565b5b813561203d848260208601611f40565b91505092915050565b600082601f83011261205b5761205a612edb565b5b813561206b848260208601611f82565b91505092915050565b60008135905061208381613490565b92915050565b60006020828403121561209f5761209e612eea565b5b60006120ad84828501611fc4565b91505092915050565b600080604083850312156120cd576120cc612eea565b5b60006120db85828601611fc4565b92505060206120ec85828601611fc4565b9150509250929050565b60008060006060848603121561210f5761210e612eea565b5b600061211d86828701611fc4565b935050602061212e86828701611fc4565b925050604061213f86828701612074565b9150509250925092565b6000806000806080858703121561216357612162612eea565b5b600061217187828801611fc4565b945050602061218287828801611fc4565b935050604061219387828801612074565b925050606085013567ffffffffffffffff8111156121b4576121b3612ee5565b5b6121c087828801612018565b91505092959194509250565b600080604083850312156121e3576121e2612eea565b5b60006121f185828601611fc4565b925050602061220285828601611fd9565b9150509250929050565b6000806040838503121561222357612222612eea565b5b600061223185828601611fc4565b925050602061224285828601612074565b9150509250929050565b6000806040838503121561226357612262612eea565b5b600061227185828601611fd9565b925050602061228285828601612074565b9150509250929050565b6000602082840312156122a2576122a1612eea565b5b60006122b084828501611fee565b91505092915050565b6000602082840312156122cf576122ce612eea565b5b60006122dd84828501612003565b91505092915050565b600080604083850312156122fd576122fc612eea565b5b600083013567ffffffffffffffff81111561231b5761231a612ee5565b5b61232785828601612046565b925050602061233885828601612074565b9150509250929050565b60006020828403121561235857612357612eea565b5b600061236684828501612074565b91505092915050565b61237881612c5d565b82525050565b61238781612c6f565b82525050565b600061239882612b5f565b6123a28185612b75565b93506123b2818560208601612ce0565b6123bb81612eef565b840191505092915050565b60006123d182612b6a565b6123db8185612b86565b93506123eb818560208601612ce0565b6123f481612eef565b840191505092915050565b600061240a82612b6a565b6124148185612b97565b9350612424818560208601612ce0565b80840191505092915050565b600061243d601783612b86565b915061244882612f00565b602082019050919050565b6000612460603283612b86565b915061246b82612f29565b604082019050919050565b6000612483601983612b86565b915061248e82612f78565b602082019050919050565b60006124a6601c83612b86565b91506124b182612fa1565b602082019050919050565b60006124c9600f83612b86565b91506124d482612fca565b602082019050919050565b60006124ec602483612b86565b91506124f782612ff3565b604082019050919050565b600061250f601983612b86565b915061251a82613042565b602082019050919050565b6000612532602c83612b86565b915061253d8261306b565b604082019050919050565b6000612555603883612b86565b9150612560826130ba565b604082019050919050565b6000612578602a83612b86565b915061258382613109565b604082019050919050565b600061259b602983612b86565b91506125a682613158565b604082019050919050565b60006125be602e83612b86565b91506125c9826131a7565b604082019050919050565b60006125e1602083612b86565b91506125ec826131f6565b602082019050919050565b6000612604603183612b86565b915061260f8261321f565b604082019050919050565b6000612627602c83612b86565b91506126328261326e565b604082019050919050565b600061264a602983612b86565b9150612655826132bd565b604082019050919050565b600061266d602f83612b86565b91506126788261330c565b604082019050919050565b6000612690602183612b86565b915061269b8261335b565b604082019050919050565b60006126b3601783612b86565b91506126be826133aa565b602082019050919050565b60006126d6603183612b86565b91506126e1826133d3565b604082019050919050565b60006126f9601083612b86565b915061270482613422565b602082019050919050565b61271881612cc7565b82525050565b600061272a82856123ff565b915061273682846123ff565b91508190509392505050565b6000602082019050612757600083018461236f565b92915050565b6000608082019050612772600083018761236f565b61277f602083018661236f565b61278c604083018561270f565b818103606083015261279e818461238d565b905095945050505050565b60006060820190506127be600083018661236f565b6127cb602083018561237e565b6127d8604083018461270f565b949350505050565b60006020820190506127f5600083018461237e565b92915050565b6000602082019050818103600083015261281581846123c6565b905092915050565b6000602082019050818103600083015261283681612430565b9050919050565b6000602082019050818103600083015261285681612453565b9050919050565b6000602082019050818103600083015261287681612476565b9050919050565b6000602082019050818103600083015261289681612499565b9050919050565b600060208201905081810360008301526128b6816124bc565b9050919050565b600060208201905081810360008301526128d6816124df565b9050919050565b600060208201905081810360008301526128f681612502565b9050919050565b6000602082019050818103600083015261291681612525565b9050919050565b6000602082019050818103600083015261293681612548565b9050919050565b600060208201905081810360008301526129568161256b565b9050919050565b600060208201905081810360008301526129768161258e565b9050919050565b60006020820190508181036000830152612996816125b1565b9050919050565b600060208201905081810360008301526129b6816125d4565b9050919050565b600060208201905081810360008301526129d6816125f7565b9050919050565b600060208201905081810360008301526129f68161261a565b9050919050565b60006020820190508181036000830152612a168161263d565b9050919050565b60006020820190508181036000830152612a3681612660565b9050919050565b60006020820190508181036000830152612a5681612683565b9050919050565b60006020820190508181036000830152612a76816126a6565b9050919050565b60006020820190508181036000830152612a96816126c9565b9050919050565b60006020820190508181036000830152612ab6816126ec565b9050919050565b6000602082019050612ad2600083018461270f565b92915050565b6000612ae2612af3565b9050612aee8282612d45565b919050565b6000604051905090565b600067ffffffffffffffff821115612b1857612b17612eac565b5b612b2182612eef565b9050602081019050919050565b600067ffffffffffffffff821115612b4957612b48612eac565b5b612b5282612eef565b9050602081019050919050565b600081519050919050565b600081519050919050565b600082825260208201905092915050565b600082825260208201905092915050565b600081905092915050565b6000612bad82612cc7565b9150612bb883612cc7565b9250827fffffffffffffffffffffffffffffffffffffffffffffffffffffffffffffffff03821115612bed57612bec612df0565b5b828201905092915050565b6000612c0382612cc7565b9150612c0e83612cc7565b925082612c1e57612c1d612e1f565b5b828204905092915050565b6000612c3482612cc7565b9150612c3f83612cc7565b925082821015612c5257612c51612df0565b5b828203905092915050565b6000612c6882612ca7565b9050919050565b60008115159050919050565b60007fffffffff0000000000000000000000000000000000000000000000000000000082169050919050565b600073ffffffffffffffffffffffffffffffffffffffff82169050919050565b6000819050919050565b82818337600083830152505050565b60005b83811015612cfe578082015181840152602081019050612ce3565b83811115612d0d576000848401525b50505050565b60006002820490506001821680612d2b57607f821691505b60208210811415612d3f57612d3e612e4e565b5b50919050565b612d4e82612eef565b810181811067ffffffffffffffff82111715612d6d57612d6c612eac565b5b80604052505050565b6000612d8182612cc7565b91507fffffffffffffffffffffffffffffffffffffffffffffffffffffffffffffffff821415612db457612db3612df0565b5b600182019050919050565b6000612dca82612cc7565b9150612dd583612cc7565b925082612de557612de4612e1f565b5b828206905092915050565b7f4e487b7100000000000000000000000000000000000000000000000000000000600052601160045260246000fd5b7f4e487b7100000000000000000000000000000000000000000000000000000000600052601260045260246000fd5b7f4e487b7100000000000000000000000000000000000000000000000000000000600052602260045260246000fd5b7f4e487b7100000000000000000000000000000000000000000000000000000000600052603260045260246000fd5b7f4e487b7100000000000000000000000000000000000000000000000000000000600052604160045260246000fd5b600080fd5b600080fd5b600080fd5b600080fd5b6000601f19601f8301169050919050565b7f4e6f7420617574686f726973656420746f206275726e2e000000000000000000600082015250565b7f4552433732313a207472616e7366657220746f206e6f6e20455243373231526560008201527f63656976657220696d706c656d656e7465720000000000000000000000000000602082015250565b7f526f79616c7479206e6f742073657420666f7220746f6b656e00000000000000600082015250565b7f4552433732313a20746f6b656e20616c7265616479206d696e74656400000000600082015250565b7f546f6b656e206e6f7420796f7572730000000000000000000000000000000000600082015250565b7f4552433732313a207472616e7366657220746f20746865207a65726f2061646460008201527f7265737300000000000000000000000000000000000000000000000000000000602082015250565b7f4552433732313a20617070726f766520746f2063616c6c657200000000000000600082015250565b7f4552433732313a206f70657261746f7220717565727920666f72206e6f6e657860008201527f697374656e7420746f6b656e0000000000000000000000000000000000000000602082015250565b7f4552433732313a20617070726f76652063616c6c6572206973206e6f74206f7760008201527f6e6572206e6f7220617070726f76656420666f7220616c6c0000000000000000602082015250565b7f4552433732313a2062616c616e636520717565727920666f7220746865207a6560008201527f726f206164647265737300000000000000000000000000000000000000000000602082015250565b7f4552433732313a206f776e657220717565727920666f72206e6f6e657869737460008201527f656e7420746f6b656e0000000000000000000000000000000000000000000000602082015250565b7f45524337323155524953746f726167653a2055524920736574206f66206e6f6e60008201527f6578697374656e7420746f6b656e000000000000000000000000000000000000602082015250565b7f4552433732313a206d696e7420746f20746865207a65726f2061646472657373600082015250565b7f45524337323155524953746f726167653a2055524920717565727920666f722060008201527f6e6f6e6578697374656e7420746f6b656e000000000000000000000000000000602082015250565b7f4552433732313a20617070726f76656420717565727920666f72206e6f6e657860008201527f697374656e7420746f6b656e0000000000000000000000000000000000000000602082015250565b7f4552433732313a207472616e73666572206f6620746f6b656e2074686174206960008201527f73206e6f74206f776e0000000000000000000000000000000000000000000000602082015250565b7f4552433732314d657461646174613a2055524920717565727920666f72206e6f60008201527f6e6578697374656e7420746f6b656e0000000000000000000000000000000000602082015250565b7f4552433732313a20617070726f76616c20746f2063757272656e74206f776e6560008201527f7200000000000000000000000000000000000000000000000000000000000000602082015250565b7f526f79616c74792061626f7665207468726573686f6c64000000000000000000600082015250565b7f4552433732313a207472616e736665722063616c6c6572206973206e6f74206f60008201527f776e6572206e6f7220617070726f766564000000000000000000000000000000602082015250565b7f55736572204e6f7420416c6c6f77656400000000000000000000000000000000600082015250565b61345481612c5d565b811461345f57600080fd5b50565b61346b81612c6f565b811461347657600080fd5b50565b61348281612c7b565b811461348d57600080fd5b50565b61349981612cc7565b81146134a457600080fd5b5056fea2646970667358221220e23fe1efb8c2db10ceaddd674ae33c62f747a5bf54ca73af231e617b715e303e64736f6c63430008060033",
  "immutableReferences": {},
  "source": "// SPDX-License-Identifier: MIT\r\n\r\npragma solidity ^0.8.0;\r\n\r\nimport \"@openzeppelin/contracts/token/ERC721/extensions/ERC721URIStorage.sol\";\r\nimport \"@openzeppelin/contracts/utils/Counters.sol\";\r\n\r\ncontract CreateNFT is ERC721URIStorage {\r\n\r\n    using Counters for Counters.Counter;\r\n    Counters.Counter private index;\r\n\r\n    string contractURI;\r\n    address owner;\r\n    address operator;\r\n    struct RoyaltyDetails {\r\n        address creator;\r\n        bool isExcluded;\r\n        uint256 amount;\r\n    }\r\n    mapping(uint256 => RoyaltyDetails) public royaltyInfo;\r\n\r\n    event Excluded(address indexed owner, uint256 tokenId);\r\n\r\n    constructor (\r\n        string memory _name, \r\n        string memory _symbol, \r\n        string memory _contractUri, \r\n        address _operator,\r\n        address _owner\r\n    ) ERC721(_name, _symbol) {\r\n        contractURI = _contractUri;\r\n        operator = _operator;\r\n        owner = _owner;\r\n    }\r\n\r\n    function _baseURI() internal pure override returns (string memory) {\r\n        return \"https://ipfs.infura.io/ipfs/\";\r\n    }\r\n\r\n    function mint(string memory _tokenURI, uint256 royaltyAmount) public {\r\n        if(owner != operator) {\r\n            require(owner == msg.sender, 'User Not Allowed');\r\n        }\r\n        require(royaltyAmount >= 0 && royaltyAmount <= 50, 'Royalty above threshold');\r\n\r\n        index.increment();\r\n        uint256 tokenId = index.current();\r\n\r\n        super._mint(msg.sender, tokenId);\r\n        super._setTokenURI(tokenId, _tokenURI);\r\n        super.setApprovalForAll(operator, true);\r\n\r\n        RoyaltyDetails storage details = royaltyInfo[tokenId];\r\n        \r\n        details.creator = msg.sender;\r\n        if(royaltyAmount == 0) details.isExcluded = true;  \r\n        else details.amount = royaltyAmount;\r\n    }\r\n\r\n    function setExcluded(bool value, uint256 tokenId) public {\r\n        require(royaltyInfo[tokenId].creator == msg.sender, 'Token not yours');\r\n        require(royaltyInfo[tokenId].amount != 0, 'Royalty not set for token');\r\n\r\n        royaltyInfo[tokenId].isExcluded = value;\r\n\r\n        emit Excluded(msg.sender, tokenId);\r\n    }\r\n\r\n    function burn(uint256 tokenId) public {\r\n        require(super.ownerOf(tokenId) == msg.sender, 'Not authorised to burn.');\r\n\r\n        super._burn(tokenId);\r\n    }\r\n}\r\n",
  "sourcePath": "C:/Users/lenovo/Documents/nft-market-place/contracts/CreateNFT.sol",
  "compiler": {
    "name": "solc",
    "version": "0.8.6+commit.11564f7e.Emscripten.clang"
  },
  "schemaVersion": "3.4.1",
  "updatedAt": "2021-10-08T05:55:38.173Z",
  "networkType": "ethereum",
  "devdoc": {
    "kind": "dev",
    "methods": {
      "approve(address,uint256)": {
        "details": "See {IERC721-approve}."
      },
      "balanceOf(address)": {
        "details": "See {IERC721-balanceOf}."
      },
      "getApproved(uint256)": {
        "details": "See {IERC721-getApproved}."
      },
      "isApprovedForAll(address,address)": {
        "details": "See {IERC721-isApprovedForAll}."
      },
      "name()": {
        "details": "See {IERC721Metadata-name}."
      },
      "ownerOf(uint256)": {
        "details": "See {IERC721-ownerOf}."
      },
      "safeTransferFrom(address,address,uint256)": {
        "details": "See {IERC721-safeTransferFrom}."
      },
      "safeTransferFrom(address,address,uint256,bytes)": {
        "details": "See {IERC721-safeTransferFrom}."
      },
      "setApprovalForAll(address,bool)": {
        "details": "See {IERC721-setApprovalForAll}."
      },
      "supportsInterface(bytes4)": {
        "details": "See {IERC165-supportsInterface}."
      },
      "symbol()": {
        "details": "See {IERC721Metadata-symbol}."
      },
      "tokenURI(uint256)": {
        "details": "See {IERC721Metadata-tokenURI}."
      },
      "transferFrom(address,address,uint256)": {
        "details": "See {IERC721-transferFrom}."
      }
    },
    "version": 1
  },
  "userdoc": {
    "kind": "user",
    "methods": {},
    "version": 1
  }
}