{
  "contractName": "MarketPlace",
  "abi": [
    {
      "inputs": [],
      "stateMutability": "nonpayable",
      "type": "constructor"
    },
    {
      "anonymous": false,
      "inputs": [
        {
          "indexed": true,
          "internalType": "address",
          "name": "creator",
          "type": "address"
        },
        {
          "indexed": false,
          "internalType": "string",
          "name": "name",
          "type": "string"
        },
        {
          "indexed": true,
          "internalType": "address",
          "name": "nftAddress",
          "type": "address"
        },
        {
          "indexed": false,
          "internalType": "string",
          "name": "contractImage",
          "type": "string"
        }
      ],
      "name": "CollectionCreated",
      "type": "event"
    },
    {
      "anonymous": false,
      "inputs": [
        {
          "indexed": false,
          "internalType": "string",
          "name": "symbol",
          "type": "string"
        },
        {
          "indexed": true,
          "internalType": "address",
          "name": "contractAddress",
          "type": "address"
        }
      ],
      "name": "CurrencySet",
      "type": "event"
    },
    {
      "anonymous": false,
      "inputs": [
        {
          "indexed": true,
          "internalType": "address",
          "name": "contractAddress",
          "type": "address"
        },
        {
          "indexed": false,
          "internalType": "uint256",
          "name": "tokenId",
          "type": "uint256"
        },
        {
          "indexed": false,
          "internalType": "uint256",
          "name": "price",
          "type": "uint256"
        },
        {
          "indexed": false,
          "internalType": "string",
          "name": "currency",
          "type": "string"
        },
        {
          "indexed": false,
          "internalType": "uint256",
          "name": "itemId",
          "type": "uint256"
        }
      ],
      "name": "MarketItemCreated",
      "type": "event"
    },
    {
      "anonymous": false,
      "inputs": [
        {
          "indexed": false,
          "internalType": "string",
          "name": "symbol",
          "type": "string"
        },
        {
          "indexed": true,
          "internalType": "address",
          "name": "buyer",
          "type": "address"
        },
        {
          "indexed": true,
          "internalType": "address",
          "name": "seller",
          "type": "address"
        },
        {
          "indexed": false,
          "internalType": "uint256",
          "name": "itemId",
          "type": "uint256"
        },
        {
          "indexed": true,
          "internalType": "address",
          "name": "contractAddress",
          "type": "address"
        },
        {
          "indexed": false,
          "internalType": "uint256",
          "name": "tokenId",
          "type": "uint256"
        }
      ],
      "name": "Sold",
      "type": "event"
    },
    {
      "inputs": [
        {
          "internalType": "string",
          "name": "",
          "type": "string"
        }
      ],
      "name": "currencies",
      "outputs": [
        {
          "internalType": "address",
          "name": "",
          "type": "address"
        }
      ],
      "stateMutability": "view",
      "type": "function",
      "constant": true
    },
    {
      "inputs": [
        {
          "internalType": "uint256",
          "name": "",
          "type": "uint256"
        }
      ],
      "name": "marketItems",
      "outputs": [
        {
          "internalType": "bool",
          "name": "isSold",
          "type": "bool"
        },
        {
          "internalType": "address",
          "name": "contractAddress",
          "type": "address"
        },
        {
          "internalType": "uint256",
          "name": "price",
          "type": "uint256"
        },
        {
          "internalType": "uint256",
          "name": "tokenId",
          "type": "uint256"
        },
        {
          "internalType": "string",
          "name": "currency",
          "type": "string"
        },
        {
          "internalType": "uint8",
          "name": "royalty",
          "type": "uint8"
        },
        {
          "internalType": "address",
          "name": "seller",
          "type": "address"
        },
        {
          "internalType": "address",
          "name": "buyer",
          "type": "address"
        },
        {
          "internalType": "uint256",
          "name": "itemId",
          "type": "uint256"
        }
      ],
      "stateMutability": "view",
      "type": "function",
      "constant": true
    },
    {
      "inputs": [],
      "name": "mptAddress",
      "outputs": [
        {
          "internalType": "address",
          "name": "",
          "type": "address"
        }
      ],
      "stateMutability": "view",
      "type": "function",
      "constant": true
    },
    {
      "inputs": [],
      "name": "owner",
      "outputs": [
        {
          "internalType": "address",
          "name": "",
          "type": "address"
        }
      ],
      "stateMutability": "view",
      "type": "function",
      "constant": true
    },
    {
      "inputs": [
        {
          "internalType": "string",
          "name": "name",
          "type": "string"
        },
        {
          "internalType": "string",
          "name": "symbol",
          "type": "string"
        },
        {
          "internalType": "string",
          "name": "contractImageUrl",
          "type": "string"
        }
      ],
      "name": "createCollection",
      "outputs": [],
      "stateMutability": "nonpayable",
      "type": "function"
    },
    {
      "inputs": [
        {
          "internalType": "address",
          "name": "contractAddress",
          "type": "address"
        },
        {
          "internalType": "uint256",
          "name": "tokenId",
          "type": "uint256"
        },
        {
          "internalType": "uint256",
          "name": "price",
          "type": "uint256"
        },
        {
          "internalType": "string",
          "name": "currency",
          "type": "string"
        }
      ],
      "name": "createMarketPlaceItem",
      "outputs": [],
      "stateMutability": "nonpayable",
      "type": "function"
    },
    {
      "inputs": [
        {
          "internalType": "uint256",
          "name": "_itemId",
          "type": "uint256"
        },
        {
          "internalType": "uint256",
          "name": "_amount",
          "type": "uint256"
        }
      ],
      "name": "buyItem",
      "outputs": [],
      "stateMutability": "nonpayable",
      "type": "function"
    },
    {
      "inputs": [
        {
          "internalType": "uint256",
          "name": "_itemId",
          "type": "uint256"
        }
      ],
      "name": "buyItem",
      "outputs": [],
      "stateMutability": "payable",
      "type": "function",
      "payable": true
    },
    {
      "inputs": [
        {
          "internalType": "string",
          "name": "_symbol",
          "type": "string"
        },
        {
          "internalType": "address",
          "name": "_contractAddress",
          "type": "address"
        }
      ],
      "name": "setCurrency",
      "outputs": [],
      "stateMutability": "nonpayable",
      "type": "function"
    }
  ],
  "bytecode": "0x60806040523480156200001157600080fd5b5030306040516200002290620001bb565b6200002f92919062000286565b604051809103906000f0801580156200004c573d6000803e3d6000fd5b506000806101000a81548173ffffffffffffffffffffffffffffffffffffffff021916908373ffffffffffffffffffffffffffffffffffffffff16021790555060008054906101000a900473ffffffffffffffffffffffffffffffffffffffff16600260006101000a81548173ffffffffffffffffffffffffffffffffffffffff021916908373ffffffffffffffffffffffffffffffffffffffff160217905550600260009054906101000a900473ffffffffffffffffffffffffffffffffffffffff1673ffffffffffffffffffffffffffffffffffffffff163073ffffffffffffffffffffffffffffffffffffffff167f1bfded0460a9d232091dcb4be3f758bf78720798d22be9f0dff37bd308b9009a6040516200016c906200024f565b60405180910390a333600160006101000a81548173ffffffffffffffffffffffffffffffffffffffff021916908373ffffffffffffffffffffffffffffffffffffffff160217905550620003fe565b6139fc80620063e183390190565b620001d48162000303565b82525050565b6000620001e9601283620002f2565b9150620001f68262000337565b602082019050919050565b600062000210604a83620002f2565b91506200021d8262000360565b606082019050919050565b600062000237600383620002f2565b91506200024482620003d5565b602082019050919050565b600060408201905081810360008301526200026a81620001da565b905081810360208301526200027f8162000201565b9050919050565b600060a0820190508181036000830152620002a181620001da565b90508181036020830152620002b68162000228565b90508181036040830152620002cb8162000201565b9050620002dc6060830185620001c9565b620002eb6080830184620001c9565b9392505050565b600082825260208201905092915050565b6000620003108262000317565b9050919050565b600073ffffffffffffffffffffffffffffffffffffffff82169050919050565b7f4d61726b657420506c61636520546f6b656e0000000000000000000000000000600082015250565b7f68747470733a2f2f697066732e696e667572612e696f2f697066732f516d653460008201527f315250566b4c4642344b4d5366733736634738795a614238527669323564374760208201527f71755232457831484a5100000000000000000000000000000000000000000000604082015250565b7f4d50540000000000000000000000000000000000000000000000000000000000600082015250565b615fd3806200040e6000396000f3fe608060405260043610620000925760003560e01c80639979c00911620000615780639979c00914620001715780639faf3112146200019f578063c8f5bc0614620001cd578063e7fb74c71462000211578063ece86c2114620002315762000092565b806329716f8a146200009757806351f28e1414620000c75780636e8e2d2b14620001135780638da5cb5b1462000141575b600080fd5b348015620000a457600080fd5b50620000af6200025f565b604051620000be919062001e49565b60405180910390f35b348015620000d457600080fd5b50620000f36004803603810190620000ed919062001b2f565b62000285565b6040516200010a9998979695949392919062001ea3565b60405180910390f35b3480156200012057600080fd5b506200013f600480360381019062000139919062001a10565b620003dd565b005b3480156200014e57600080fd5b506200015962000523565b60405162000168919062001e49565b60405180910390f35b3480156200017e57600080fd5b506200019d600480360381019062000197919062001b61565b62000549565b005b348015620001ac57600080fd5b50620001cb6004803603810190620001c59190620018fc565b62000d43565b005b348015620001da57600080fd5b50620001f96004803603810190620001f39190620019bf565b62000f9b565b60405162000208919062001e49565b60405180910390f35b6200022f600480360381019062000229919062001b2f565b62000fe4565b005b3480156200023e57600080fd5b506200025d600480360381019062000257919062001a76565b6200158d565b005b600260009054906101000a900473ffffffffffffffffffffffffffffffffffffffff1681565b60036020528060005260406000206000915090508060000160009054906101000a900460ff16908060000160019054906101000a900473ffffffffffffffffffffffffffffffffffffffff1690806001015490806002015490806003018054620002ef9062002362565b80601f01602080910402602001604051908101604052809291908181526020018280546200031d9062002362565b80156200036e5780601f1062000342576101008083540402835291602001916200036e565b820191906000526020600020905b8154815290600101906020018083116200035057829003601f168201915b5050505050908060040160009054906101000a900460ff16908060040160019054906101000a900473ffffffffffffffffffffffffffffffffffffffff16908060050160009054906101000a900473ffffffffffffffffffffffffffffffffffffffff16908060060154905089565b3373ffffffffffffffffffffffffffffffffffffffff16600160009054906101000a900473ffffffffffffffffffffffffffffffffffffffff1673ffffffffffffffffffffffffffffffffffffffff161462000470576040517f08c379a0000000000000000000000000000000000000000000000000000000008152600401620004679062002080565b60405180910390fd5b8060048360405162000483919062001e17565b908152602001604051809103902060006101000a81548173ffffffffffffffffffffffffffffffffffffffff021916908373ffffffffffffffffffffffffffffffffffffffff1602179055508073ffffffffffffffffffffffffffffffffffffffff167f9f20d18ecaed4801e2365d1afc2244f61895f9ae2294fe2d5491279ba23716a38360405162000517919062001f49565b60405180910390a25050565b600160009054906101000a900473ffffffffffffffffffffffffffffffffffffffff1681565b6000600360008481526020019081526020016000209050600015158160000160009054906101000a900460ff16151514620005bb576040517f08c379a0000000000000000000000000000000000000000000000000000000008152600401620005b2906200205e565b60405180910390fd5b818160010154111562000605576040517f08c379a0000000000000000000000000000000000000000000000000000000008152600401620005fc90620020a2565b60405180910390fd5b60008160000160019054906101000a900473ffffffffffffffffffffffffffffffffffffffff16905060008060008373ffffffffffffffffffffffffffffffffffffffff1663cef6d36886600201546040518263ffffffff1660e01b8152600401620006729190620020e6565b60606040518083038186803b1580156200068b57600080fd5b505afa158015620006a0573d6000803e3d6000fd5b505050506040513d601f19601f82011682018060405250810190620006c69190620018a0565b9250925092508460040160019054906101000a900473ffffffffffffffffffffffffffffffffffffffff1673ffffffffffffffffffffffffffffffffffffffff168373ffffffffffffffffffffffffffffffffffffffff161462000a4457816200093c57600060648287600101546200074091906200222a565b6200074c9190620021f2565b905060048660030160405162000763919062001e30565b908152602001604051809103902060009054906101000a900473ffffffffffffffffffffffffffffffffffffffff1673ffffffffffffffffffffffffffffffffffffffff166323b872dd3386846040518463ffffffff1660e01b8152600401620007d09392919062001e66565b602060405180830381600087803b158015620007eb57600080fd5b505af115801562000800573d6000803e3d6000fd5b505050506040513d601f19601f820116820180604052508101906200082691906200198d565b506004866003016040516200083c919062001e30565b908152602001604051809103902060009054906101000a900473ffffffffffffffffffffffffffffffffffffffff1673ffffffffffffffffffffffffffffffffffffffff166323b872dd338860040160019054906101000a900473ffffffffffffffffffffffffffffffffffffffff16848a60010154620008be91906200228b565b6040518463ffffffff1660e01b8152600401620008de9392919062001e66565b602060405180830381600087803b158015620008f957600080fd5b505af11580156200090e573d6000803e3d6000fd5b505050506040513d601f19601f820116820180604052508101906200093491906200198d565b505062000a3e565b60048560030160405162000951919062001e30565b908152602001604051809103902060009054906101000a900473ffffffffffffffffffffffffffffffffffffffff1673ffffffffffffffffffffffffffffffffffffffff166323b872dd338760040160019054906101000a900473ffffffffffffffffffffffffffffffffffffffff1688600101546040518463ffffffff1660e01b8152600401620009e69392919062001e66565b602060405180830381600087803b15801562000a0157600080fd5b505af115801562000a16573d6000803e3d6000fd5b505050506040513d601f19601f8201168201806040525081019062000a3c91906200198d565b505b62000b46565b60048560030160405162000a59919062001e30565b908152602001604051809103902060009054906101000a900473ffffffffffffffffffffffffffffffffffffffff1673ffffffffffffffffffffffffffffffffffffffff166323b872dd338760040160019054906101000a900473ffffffffffffffffffffffffffffffffffffffff1688600101546040518463ffffffff1660e01b815260040162000aee9392919062001e66565b602060405180830381600087803b15801562000b0957600080fd5b505af115801562000b1e573d6000803e3d6000fd5b505050506040513d601f19601f8201168201806040525081019062000b4491906200198d565b505b8373ffffffffffffffffffffffffffffffffffffffff166342842e0e8660040160019054906101000a900473ffffffffffffffffffffffffffffffffffffffff163388600201546040518463ffffffff1660e01b815260040162000bad9392919062001e66565b600060405180830381600087803b15801562000bc857600080fd5b505af115801562000bdd573d6000803e3d6000fd5b50505050338560050160006101000a81548173ffffffffffffffffffffffffffffffffffffffff021916908373ffffffffffffffffffffffffffffffffffffffff16021790555060018560000160006101000a81548160ff0219169083151502179055508460000160019054906101000a900473ffffffffffffffffffffffffffffffffffffffff1673ffffffffffffffffffffffffffffffffffffffff168560040160019054906101000a900473ffffffffffffffffffffffffffffffffffffffff1673ffffffffffffffffffffffffffffffffffffffff168660050160009054906101000a900473ffffffffffffffffffffffffffffffffffffffff1673ffffffffffffffffffffffffffffffffffffffff167f367ffaccb7915c4ac684a8dc1dd00ae7eaafd410f9fe0caf66417b7fb61f43918860030189600601548a6002015460405162000d32939291906200201a565b60405180910390a450505050505050565b62000d4f60056200169b565b600062000d5d6005620016b1565b9050600085905060008173ffffffffffffffffffffffffffffffffffffffff16636352211e876040518263ffffffff1660e01b815260040162000da19190620020e6565b60206040518083038186803b15801562000dba57600080fd5b505afa15801562000dcf573d6000803e3d6000fd5b505050506040513d601f19601f8201168201806040525081019062000df591906200186e565b90503373ffffffffffffffffffffffffffffffffffffffff168173ffffffffffffffffffffffffffffffffffffffff161462000e68576040517f08c379a000000000000000000000000000000000000000000000000000000000815260040162000e5f90620020c4565b60405180910390fd5b6000600360008581526020019081526020016000209050878160000160016101000a81548173ffffffffffffffffffffffffffffffffffffffff021916908373ffffffffffffffffffffffffffffffffffffffff1602179055508581600101819055508681600201819055508481600301908051906020019062000eee929190620016bf565b50338160040160016101000a81548173ffffffffffffffffffffffffffffffffffffffff021916908373ffffffffffffffffffffffffffffffffffffffff1602179055508381600601819055508773ffffffffffffffffffffffffffffffffffffffff167fb5d1245b1ff6c06c66b3d50edd3da3ba7d2d7604b89b719f5f0cecb8616596888888888860405162000f89949392919062002103565b60405180910390a25050505050505050565b6004818051602081018201805184825260208301602085012081835280955050505050506000915054906101000a900473ffffffffffffffffffffffffffffffffffffffff1681565b6000600360008381526020019081526020016000209050600015158160000160009054906101000a900460ff1615151462001056576040517f08c379a00000000000000000000000000000000000000000000000000000000081526004016200104d906200205e565b60405180910390fd5b8060010154341015620010a0576040517f08c379a00000000000000000000000000000000000000000000000000000000081526004016200109790620020a2565b60405180910390fd5b60008160000160019054906101000a900473ffffffffffffffffffffffffffffffffffffffff16905060008060008373ffffffffffffffffffffffffffffffffffffffff1663cef6d36886600201546040518263ffffffff1660e01b81526004016200110d9190620020e6565b60606040518083038186803b1580156200112657600080fd5b505afa1580156200113b573d6000803e3d6000fd5b505050506040513d601f19601f82011682018060405250810190620011619190620018a0565b9250925092508460040160019054906101000a900473ffffffffffffffffffffffffffffffffffffffff1673ffffffffffffffffffffffffffffffffffffffff168373ffffffffffffffffffffffffffffffffffffffff1614620013245781620012b15760006064828760010154620011db91906200222a565b620011e79190620021f2565b90508373ffffffffffffffffffffffffffffffffffffffff166108fc829081150290604051600060405180830381858888f1935050505015801562001230573d6000803e3d6000fd5b508560040160019054906101000a900473ffffffffffffffffffffffffffffffffffffffff1673ffffffffffffffffffffffffffffffffffffffff166108fc82346200127d91906200228b565b9081150290604051600060405180830381858888f19350505050158015620012a9573d6000803e3d6000fd5b50506200131e565b8460040160019054906101000a900473ffffffffffffffffffffffffffffffffffffffff1673ffffffffffffffffffffffffffffffffffffffff166108fc349081150290604051600060405180830381858888f193505050501580156200131c573d6000803e3d6000fd5b505b62001391565b8460040160019054906101000a900473ffffffffffffffffffffffffffffffffffffffff1673ffffffffffffffffffffffffffffffffffffffff166108fc349081150290604051600060405180830381858888f193505050501580156200138f573d6000803e3d6000fd5b505b8373ffffffffffffffffffffffffffffffffffffffff166342842e0e8660040160019054906101000a900473ffffffffffffffffffffffffffffffffffffffff163388600201546040518463ffffffff1660e01b8152600401620013f89392919062001e66565b600060405180830381600087803b1580156200141357600080fd5b505af115801562001428573d6000803e3d6000fd5b50505050338560050160006101000a81548173ffffffffffffffffffffffffffffffffffffffff021916908373ffffffffffffffffffffffffffffffffffffffff16021790555060018560000160006101000a81548160ff0219169083151502179055508460000160019054906101000a900473ffffffffffffffffffffffffffffffffffffffff1673ffffffffffffffffffffffffffffffffffffffff168560040160019054906101000a900473ffffffffffffffffffffffffffffffffffffffff1673ffffffffffffffffffffffffffffffffffffffff168660050160009054906101000a900473ffffffffffffffffffffffffffffffffffffffff1673ffffffffffffffffffffffffffffffffffffffff167f367ffaccb7915c4ac684a8dc1dd00ae7eaafd410f9fe0caf66417b7fb61f43918860030189600601548a600201546040516200157d939291906200201a565b60405180910390a4505050505050565b8282823033604051620015a09062001750565b620015b095949392919062001fa8565b604051809103906000f080158015620015cd573d6000803e3d6000fd5b506000806101000a81548173ffffffffffffffffffffffffffffffffffffffff021916908373ffffffffffffffffffffffffffffffffffffffff16021790555060008054906101000a900473ffffffffffffffffffffffffffffffffffffffff1673ffffffffffffffffffffffffffffffffffffffff163373ffffffffffffffffffffffffffffffffffffffff167f1bfded0460a9d232091dcb4be3f758bf78720798d22be9f0dff37bd308b9009a85846040516200168e92919062001f6d565b60405180910390a3505050565b6001816000016000828254019250508190555050565b600081600001549050919050565b828054620016cd9062002362565b90600052602060002090601f016020900481019282620016f157600085556200173d565b82601f106200170c57805160ff19168380011785556200173d565b828001600101855582156200173d579182015b828111156200173c5782518255916020019190600101906200171f565b5b5090506200174c91906200175e565b5090565b6139fc80620025a283390190565b5b80821115620017795760008160009055506001016200175f565b5090565b6000620017946200178e8462002180565b62002157565b905082815260208101848484011115620017b357620017b26200248f565b5b620017c08482856200231d565b509392505050565b600081359050620017d98162002553565b92915050565b600081519050620017f08162002553565b92915050565b60008151905062001807816200256d565b92915050565b600082601f8301126200182557620018246200248a565b5b8135620018378482602086016200177d565b91505092915050565b600081359050620018518162002587565b92915050565b600081519050620018688162002587565b92915050565b60006020828403121562001887576200188662002499565b5b60006200189784828501620017df565b91505092915050565b600080600060608486031215620018bc57620018bb62002499565b5b6000620018cc86828701620017df565b9350506020620018df86828701620017f6565b9250506040620018f28682870162001857565b9150509250925092565b6000806000806080858703121562001919576200191862002499565b5b60006200192987828801620017c8565b94505060206200193c8782880162001840565b93505060406200194f8782880162001840565b925050606085013567ffffffffffffffff81111562001973576200197262002494565b5b62001981878288016200180d565b91505092959194509250565b600060208284031215620019a657620019a562002499565b5b6000620019b684828501620017f6565b91505092915050565b600060208284031215620019d857620019d762002499565b5b600082013567ffffffffffffffff811115620019f957620019f862002494565b5b62001a07848285016200180d565b91505092915050565b6000806040838503121562001a2a5762001a2962002499565b5b600083013567ffffffffffffffff81111562001a4b5762001a4a62002494565b5b62001a59858286016200180d565b925050602062001a6c85828601620017c8565b9150509250929050565b60008060006060848603121562001a925762001a9162002499565b5b600084013567ffffffffffffffff81111562001ab35762001ab262002494565b5b62001ac1868287016200180d565b935050602084013567ffffffffffffffff81111562001ae55762001ae462002494565b5b62001af3868287016200180d565b925050604084013567ffffffffffffffff81111562001b175762001b1662002494565b5b62001b25868287016200180d565b9150509250925092565b60006020828403121562001b485762001b4762002499565b5b600062001b588482850162001840565b91505092915050565b6000806040838503121562001b7b5762001b7a62002499565b5b600062001b8b8582860162001840565b925050602062001b9e8582860162001840565b9150509250929050565b62001bb381620022c6565b82525050565b62001bc481620022da565b82525050565b600062001bd782620021cb565b62001be38185620021d6565b935062001bf58185602086016200232c565b62001c00816200249e565b840191505092915050565b600062001c1882620021cb565b62001c248185620021e7565b935062001c368185602086016200232c565b80840191505092915050565b6000815462001c518162002362565b62001c5d8186620021d6565b9450600182166000811462001c7b576001811462001c8e5762001cc5565b60ff198316865260208601935062001cc5565b62001c9985620021b6565b60005b8381101562001cbd5781548189015260018201915060208101905062001c9c565b808801955050505b50505092915050565b6000815462001cdd8162002362565b62001ce98186620021e7565b9450600182166000811462001d07576001811462001d195762001d50565b60ff1983168652818601935062001d50565b62001d2485620021b6565b60005b8381101562001d485781548189015260018201915060208101905062001d27565b838801955050505b50505092915050565b600062001d68600883620021d6565b915062001d7582620024af565b602082019050919050565b600062001d8f601383620021d6565b915062001d9c82620024d8565b602082019050919050565b600062001db6601183620021d6565b915062001dc38262002501565b602082019050919050565b600062001ddd600d83620021d6565b915062001dea826200252a565b602082019050919050565b62001e008162002306565b82525050565b62001e118162002310565b82525050565b600062001e25828462001c0b565b915081905092915050565b600062001e3e828462001cce565b915081905092915050565b600060208201905062001e60600083018462001ba8565b92915050565b600060608201905062001e7d600083018662001ba8565b62001e8c602083018562001ba8565b62001e9b604083018462001df5565b949350505050565b60006101208201905062001ebb600083018c62001bb9565b62001eca602083018b62001ba8565b62001ed9604083018a62001df5565b62001ee8606083018962001df5565b818103608083015262001efc818862001bca565b905062001f0d60a083018762001e06565b62001f1c60c083018662001ba8565b62001f2b60e083018562001ba8565b62001f3b61010083018462001df5565b9a9950505050505050505050565b6000602082019050818103600083015262001f65818462001bca565b905092915050565b6000604082019050818103600083015262001f89818562001bca565b9050818103602083015262001f9f818462001bca565b90509392505050565b600060a082019050818103600083015262001fc4818862001bca565b9050818103602083015262001fda818762001bca565b9050818103604083015262001ff0818662001bca565b905062002001606083018562001ba8565b62002010608083018462001ba8565b9695505050505050565b6000606082019050818103600083015262002036818662001c42565b905062002047602083018562001df5565b62002056604083018462001df5565b949350505050565b60006020820190508181036000830152620020798162001d59565b9050919050565b600060208201905081810360008301526200209b8162001d80565b9050919050565b60006020820190508181036000830152620020bd8162001da7565b9050919050565b60006020820190508181036000830152620020df8162001dce565b9050919050565b6000602082019050620020fd600083018462001df5565b92915050565b60006080820190506200211a600083018762001df5565b62002129602083018662001df5565b81810360408301526200213d818562001bca565b90506200214e606083018462001df5565b95945050505050565b60006200216362002176565b905062002171828262002398565b919050565b6000604051905090565b600067ffffffffffffffff8211156200219e576200219d6200245b565b5b620021a9826200249e565b9050602081019050919050565b60008190508160005260206000209050919050565b600081519050919050565b600082825260208201905092915050565b600081905092915050565b6000620021ff8262002306565b91506200220c8362002306565b9250826200221f576200221e620023fd565b5b828204905092915050565b6000620022378262002306565b9150620022448362002306565b9250817fffffffffffffffffffffffffffffffffffffffffffffffffffffffffffffffff048311821515161562002280576200227f620023ce565b5b828202905092915050565b6000620022988262002306565b9150620022a58362002306565b925082821015620022bb57620022ba620023ce565b5b828203905092915050565b6000620022d382620022e6565b9050919050565b60008115159050919050565b600073ffffffffffffffffffffffffffffffffffffffff82169050919050565b6000819050919050565b600060ff82169050919050565b82818337600083830152505050565b60005b838110156200234c5780820151818401526020810190506200232f565b838111156200235c576000848401525b50505050565b600060028204905060018216806200237b57607f821691505b602082108114156200239257620023916200242c565b5b50919050565b620023a3826200249e565b810181811067ffffffffffffffff82111715620023c557620023c46200245b565b5b80604052505050565b7f4e487b7100000000000000000000000000000000000000000000000000000000600052601160045260246000fd5b7f4e487b7100000000000000000000000000000000000000000000000000000000600052601260045260246000fd5b7f4e487b7100000000000000000000000000000000000000000000000000000000600052602260045260246000fd5b7f4e487b7100000000000000000000000000000000000000000000000000000000600052604160045260246000fd5b600080fd5b600080fd5b600080fd5b600080fd5b6000601f19601f8301169050919050565b7f4e465420736f6c64000000000000000000000000000000000000000000000000600082015250565b7f4f6e6c79206f776e657220616c6c6f7765642e00000000000000000000000000600082015250565b7f496e73756666696369656e742066756e64000000000000000000000000000000600082015250565b7f4e6f74204e4654206f776e657200000000000000000000000000000000000000600082015250565b6200255e81620022c6565b81146200256a57600080fd5b50565b6200257881620022da565b81146200258457600080fd5b50565b620025928162002306565b81146200259e57600080fd5b5056fe60806040523480156200001157600080fd5b50604051620039fc380380620039fc833981810160405281019062000037919062000258565b848481600090805190602001906200005192919062000113565b5080600190805190602001906200006a92919062000113565b50505082600890805190602001906200008592919062000113565b5081600a60006101000a81548173ffffffffffffffffffffffffffffffffffffffff021916908373ffffffffffffffffffffffffffffffffffffffff16021790555080600960006101000a81548173ffffffffffffffffffffffffffffffffffffffff021916908373ffffffffffffffffffffffffffffffffffffffff16021790555050505050506200050f565b828054620001219062000406565b90600052602060002090601f01602090048101928262000145576000855562000191565b82601f106200016057805160ff191683800117855562000191565b8280016001018555821562000191579182015b828111156200019057825182559160200191906001019062000173565b5b509050620001a09190620001a4565b5090565b5b80821115620001bf576000816000905550600101620001a5565b5090565b6000620001da620001d48462000366565b6200033d565b905082815260208101848484011115620001f957620001f8620004d5565b5b62000206848285620003d0565b509392505050565b6000815190506200021f81620004f5565b92915050565b600082601f8301126200023d576200023c620004d0565b5b81516200024f848260208601620001c3565b91505092915050565b600080600080600060a08688031215620002775762000276620004df565b5b600086015167ffffffffffffffff811115620002985762000297620004da565b5b620002a68882890162000225565b955050602086015167ffffffffffffffff811115620002ca57620002c9620004da565b5b620002d88882890162000225565b945050604086015167ffffffffffffffff811115620002fc57620002fb620004da565b5b6200030a8882890162000225565b93505060606200031d888289016200020e565b925050608062000330888289016200020e565b9150509295509295909350565b6000620003496200035c565b90506200035782826200043c565b919050565b6000604051905090565b600067ffffffffffffffff821115620003845762000383620004a1565b5b6200038f82620004e4565b9050602081019050919050565b6000620003a982620003b0565b9050919050565b600073ffffffffffffffffffffffffffffffffffffffff82169050919050565b60005b83811015620003f0578082015181840152602081019050620003d3565b8381111562000400576000848401525b50505050565b600060028204905060018216806200041f57607f821691505b6020821081141562000436576200043562000472565b5b50919050565b6200044782620004e4565b810181811067ffffffffffffffff82111715620004695762000468620004a1565b5b80604052505050565b7f4e487b7100000000000000000000000000000000000000000000000000000000600052602260045260246000fd5b7f4e487b7100000000000000000000000000000000000000000000000000000000600052604160045260246000fd5b600080fd5b600080fd5b600080fd5b600080fd5b6000601f19601f8301169050919050565b62000500816200039c565b81146200050c57600080fd5b50565b6134dd806200051f6000396000f3fe608060405234801561001057600080fd5b506004361061010b5760003560e01c80636352211e116100a2578063b88d4fde11610071578063b88d4fde146102b4578063c87b56dd146102d0578063cef6d36814610300578063e8d8c91614610332578063e985e9c51461034e5761010b565b80636352211e1461021a57806370a082311461024a57806395d89b411461027a578063a22cb465146102985761010b565b8063095ea7b3116100de578063095ea7b3146101aa57806323b872dd146101c657806342842e0e146101e257806342966c68146101fe5761010b565b806301ffc9a714610110578063056b01ce1461014057806306fdde031461015c578063081812fc1461017a575b600080fd5b61012a6004803603810190610125919061228c565b61037e565b60405161013791906127e0565b60405180910390f35b61015a600480360381019061015591906122e6565b610460565b005b6101646106a7565b60405161017191906127fb565b60405180910390f35b610194600480360381019061018f9190612342565b610739565b6040516101a19190612742565b60405180910390f35b6101c460048036038101906101bf919061220c565b6107be565b005b6101e060048036038101906101db91906120f6565b6108d6565b005b6101fc60048036038101906101f791906120f6565b610936565b005b61021860048036038101906102139190612342565b610956565b005b610234600480360381019061022f9190612342565b6109d8565b6040516102419190612742565b60405180910390f35b610264600480360381019061025f9190612089565b610a8a565b6040516102719190612abd565b60405180910390f35b610282610b42565b60405161028f91906127fb565b60405180910390f35b6102b260048036038101906102ad91906121cc565b610bd4565b005b6102ce60048036038101906102c99190612149565b610d55565b005b6102ea60048036038101906102e59190612342565b610db7565b6040516102f791906127fb565b60405180910390f35b61031a60048036038101906103159190612342565b610f09565b604051610329939291906127a9565b60405180910390f35b61034c6004803603810190610347919061224c565b610f60565b005b610368600480360381019061036391906120b6565b6110de565b60405161037591906127e0565b60405180910390f35b60007f80ac58cd000000000000000000000000000000000000000000000000000000007bffffffffffffffffffffffffffffffffffffffffffffffffffffffff1916827bffffffffffffffffffffffffffffffffffffffffffffffffffffffff1916148061044957507f5b5e139f000000000000000000000000000000000000000000000000000000007bffffffffffffffffffffffffffffffffffffffffffffffffffffffff1916827bffffffffffffffffffffffffffffffffffffffffffffffffffffffff1916145b80610459575061045882611172565b5b9050919050565b600a60009054906101000a900473ffffffffffffffffffffffffffffffffffffffff1673ffffffffffffffffffffffffffffffffffffffff16600960009054906101000a900473ffffffffffffffffffffffffffffffffffffffff1673ffffffffffffffffffffffffffffffffffffffff1614610568573373ffffffffffffffffffffffffffffffffffffffff16600960009054906101000a900473ffffffffffffffffffffffffffffffffffffffff1673ffffffffffffffffffffffffffffffffffffffff1614610567576040517f08c379a000000000000000000000000000000000000000000000000000000000815260040161055e90612a9d565b60405180910390fd5b5b6000811015801561057a575060328111155b6105b9576040517f08c379a00000000000000000000000000000000000000000000000000000000081526004016105b090612a5d565b60405180910390fd5b6105c360076111dc565b60006105cf60076111f2565b90506105db3382611200565b6105e581846113ce565b610612600a60009054906101000a900473ffffffffffffffffffffffffffffffffffffffff166001610bd4565b6000600b60008381526020019081526020016000209050338160000160006101000a81548173ffffffffffffffffffffffffffffffffffffffff021916908373ffffffffffffffffffffffffffffffffffffffff16021790555060008314156106975760018160000160146101000a81548160ff0219169083151502179055506106a1565b8281600101819055505b50505050565b6060600080546106b690612d13565b80601f01602080910402602001604051908101604052809291908181526020018280546106e290612d13565b801561072f5780601f106107045761010080835404028352916020019161072f565b820191906000526020600020905b81548152906001019060200180831161071257829003601f168201915b5050505050905090565b600061074482611442565b610783576040517f08c379a000000000000000000000000000000000000000000000000000000000815260040161077a906129dd565b60405180910390fd5b6004600083815260200190815260200160002060009054906101000a900473ffffffffffffffffffffffffffffffffffffffff169050919050565b60006107c9826109d8565b90508073ffffffffffffffffffffffffffffffffffffffff168373ffffffffffffffffffffffffffffffffffffffff16141561083a576040517f08c379a000000000000000000000000000000000000000000000000000000000815260040161083190612a3d565b60405180910390fd5b8073ffffffffffffffffffffffffffffffffffffffff166108596114ae565b73ffffffffffffffffffffffffffffffffffffffff1614806108885750610887816108826114ae565b6110de565b5b6108c7576040517f08c379a00000000000000000000000000000000000000000000000000000000081526004016108be9061291d565b60405180910390fd5b6108d183836114b6565b505050565b6108e76108e16114ae565b8261156f565b610926576040517f08c379a000000000000000000000000000000000000000000000000000000000815260040161091d90612a7d565b60405180910390fd5b61093183838361164d565b505050565b61095183838360405180602001604052806000815250610d55565b505050565b3373ffffffffffffffffffffffffffffffffffffffff16610976826109d8565b73ffffffffffffffffffffffffffffffffffffffff16146109cc576040517f08c379a00000000000000000000000000000000000000000000000000000000081526004016109c39061281d565b60405180910390fd5b6109d5816118a9565b50565b6000806002600084815260200190815260200160002060009054906101000a900473ffffffffffffffffffffffffffffffffffffffff169050600073ffffffffffffffffffffffffffffffffffffffff168173ffffffffffffffffffffffffffffffffffffffff161415610a81576040517f08c379a0000000000000000000000000000000000000000000000000000000008152600401610a789061295d565b60405180910390fd5b80915050919050565b60008073ffffffffffffffffffffffffffffffffffffffff168273ffffffffffffffffffffffffffffffffffffffff161415610afb576040517f08c379a0000000000000000000000000000000000000000000000000000000008152600401610af29061293d565b60405180910390fd5b600360008373ffffffffffffffffffffffffffffffffffffffff1673ffffffffffffffffffffffffffffffffffffffff168152602001908152602001600020549050919050565b606060018054610b5190612d13565b80601f0160208091040260200160405190810160405280929190818152602001828054610b7d90612d13565b8015610bca5780601f10610b9f57610100808354040283529160200191610bca565b820191906000526020600020905b815481529060010190602001808311610bad57829003601f168201915b5050505050905090565b610bdc6114ae565b73ffffffffffffffffffffffffffffffffffffffff168273ffffffffffffffffffffffffffffffffffffffff161415610c4a576040517f08c379a0000000000000000000000000000000000000000000000000000000008152600401610c41906128dd565b60405180910390fd5b8060056000610c576114ae565b73ffffffffffffffffffffffffffffffffffffffff1673ffffffffffffffffffffffffffffffffffffffff16815260200190815260200160002060008473ffffffffffffffffffffffffffffffffffffffff1673ffffffffffffffffffffffffffffffffffffffff16815260200190815260200160002060006101000a81548160ff0219169083151502179055508173ffffffffffffffffffffffffffffffffffffffff16610d046114ae565b73ffffffffffffffffffffffffffffffffffffffff167f17307eab39ab6107e8899845ad3d59bd9653f200f220920489ca2b5937696c3183604051610d4991906127e0565b60405180910390a35050565b610d66610d606114ae565b8361156f565b610da5576040517f08c379a0000000000000000000000000000000000000000000000000000000008152600401610d9c90612a7d565b60405180910390fd5b610db1848484846118fc565b50505050565b6060610dc282611442565b610e01576040517f08c379a0000000000000000000000000000000000000000000000000000000008152600401610df8906129bd565b60405180910390fd5b6000600660008481526020019081526020016000208054610e2190612d13565b80601f0160208091040260200160405190810160405280929190818152602001828054610e4d90612d13565b8015610e9a5780601f10610e6f57610100808354040283529160200191610e9a565b820191906000526020600020905b815481529060010190602001808311610e7d57829003601f168201915b505050505090506000610eab611958565b9050600081511415610ec1578192505050610f04565b600082511115610ef6578082604051602001610ede92919061271e565b60405160208183030381529060405292505050610f04565b610eff84611995565b925050505b919050565b600b6020528060005260406000206000915090508060000160009054906101000a900473ffffffffffffffffffffffffffffffffffffffff16908060000160149054906101000a900460ff16908060010154905083565b3373ffffffffffffffffffffffffffffffffffffffff16600b600083815260200190815260200160002060000160009054906101000a900473ffffffffffffffffffffffffffffffffffffffff1673ffffffffffffffffffffffffffffffffffffffff1614611004576040517f08c379a0000000000000000000000000000000000000000000000000000000008152600401610ffb9061289d565b60405180910390fd5b6000600b600083815260200190815260200160002060010154141561105e576040517f08c379a00000000000000000000000000000000000000000000000000000000081526004016110559061285d565b60405180910390fd5b81600b600083815260200190815260200160002060000160146101000a81548160ff0219169083151502179055503373ffffffffffffffffffffffffffffffffffffffff167fad7f145777ce4d0af2388cfccbec6e35925f6bff26a9fa167fb64f9dcc1a1b22826040516110d29190612abd565b60405180910390a25050565b6000600560008473ffffffffffffffffffffffffffffffffffffffff1673ffffffffffffffffffffffffffffffffffffffff16815260200190815260200160002060008373ffffffffffffffffffffffffffffffffffffffff1673ffffffffffffffffffffffffffffffffffffffff16815260200190815260200160002060009054906101000a900460ff16905092915050565b60007f01ffc9a7000000000000000000000000000000000000000000000000000000007bffffffffffffffffffffffffffffffffffffffffffffffffffffffff1916827bffffffffffffffffffffffffffffffffffffffffffffffffffffffff1916149050919050565b6001816000016000828254019250508190555050565b600081600001549050919050565b600073ffffffffffffffffffffffffffffffffffffffff168273ffffffffffffffffffffffffffffffffffffffff161415611270576040517f08c379a00000000000000000000000000000000000000000000000000000000081526004016112679061299d565b60405180910390fd5b61127981611442565b156112b9576040517f08c379a00000000000000000000000000000000000000000000000000000000081526004016112b09061287d565b60405180910390fd5b6112c560008383611a3c565b6001600360008473ffffffffffffffffffffffffffffffffffffffff1673ffffffffffffffffffffffffffffffffffffffff16815260200190815260200160002060008282546113159190612ba2565b92505081905550816002600083815260200190815260200160002060006101000a81548173ffffffffffffffffffffffffffffffffffffffff021916908373ffffffffffffffffffffffffffffffffffffffff160217905550808273ffffffffffffffffffffffffffffffffffffffff16600073ffffffffffffffffffffffffffffffffffffffff167fddf252ad1be2c89b69c2b068fc378daa952ba7f163c4a11628f55a4df523b3ef60405160405180910390a45050565b6113d782611442565b611416576040517f08c379a000000000000000000000000000000000000000000000000000000000815260040161140d9061297d565b60405180910390fd5b8060066000848152602001908152602001600020908051906020019061143d929190611e5d565b505050565b60008073ffffffffffffffffffffffffffffffffffffffff166002600084815260200190815260200160002060009054906101000a900473ffffffffffffffffffffffffffffffffffffffff1673ffffffffffffffffffffffffffffffffffffffff1614159050919050565b600033905090565b816004600083815260200190815260200160002060006101000a81548173ffffffffffffffffffffffffffffffffffffffff021916908373ffffffffffffffffffffffffffffffffffffffff160217905550808273ffffffffffffffffffffffffffffffffffffffff16611529836109d8565b73ffffffffffffffffffffffffffffffffffffffff167f8c5be1e5ebec7d5bd14f71427d1e84f3dd0314c0f7b2291e5b200ac8c7c3b92560405160405180910390a45050565b600061157a82611442565b6115b9576040517f08c379a00000000000000000000000000000000000000000000000000000000081526004016115b0906128fd565b60405180910390fd5b60006115c4836109d8565b90508073ffffffffffffffffffffffffffffffffffffffff168473ffffffffffffffffffffffffffffffffffffffff16148061163357508373ffffffffffffffffffffffffffffffffffffffff1661161b84610739565b73ffffffffffffffffffffffffffffffffffffffff16145b80611644575061164381856110de565b5b91505092915050565b8273ffffffffffffffffffffffffffffffffffffffff1661166d826109d8565b73ffffffffffffffffffffffffffffffffffffffff16146116c3576040517f08c379a00000000000000000000000000000000000000000000000000000000081526004016116ba906129fd565b60405180910390fd5b600073ffffffffffffffffffffffffffffffffffffffff168273ffffffffffffffffffffffffffffffffffffffff161415611733576040517f08c379a000000000000000000000000000000000000000000000000000000000815260040161172a906128bd565b60405180910390fd5b61173e838383611a3c565b6117496000826114b6565b6001600360008573ffffffffffffffffffffffffffffffffffffffff1673ffffffffffffffffffffffffffffffffffffffff16815260200190815260200160002060008282546117999190612c29565b925050819055506001600360008473ffffffffffffffffffffffffffffffffffffffff1673ffffffffffffffffffffffffffffffffffffffff16815260200190815260200160002060008282546117f09190612ba2565b92505081905550816002600083815260200190815260200160002060006101000a81548173ffffffffffffffffffffffffffffffffffffffff021916908373ffffffffffffffffffffffffffffffffffffffff160217905550808273ffffffffffffffffffffffffffffffffffffffff168473ffffffffffffffffffffffffffffffffffffffff167fddf252ad1be2c89b69c2b068fc378daa952ba7f163c4a11628f55a4df523b3ef60405160405180910390a4505050565b6118b281611a41565b60006006600083815260200190815260200160002080546118d290612d13565b9050146118f9576006600082815260200190815260200160002060006118f89190611ee3565b5b50565b61190784848461164d565b61191384848484611b52565b611952576040517f08c379a00000000000000000000000000000000000000000000000000000000081526004016119499061283d565b60405180910390fd5b50505050565b60606040518060400160405280601c81526020017f68747470733a2f2f697066732e696e667572612e696f2f697066732f00000000815250905090565b60606119a082611442565b6119df576040517f08c379a00000000000000000000000000000000000000000000000000000000081526004016119d690612a1d565b60405180910390fd5b60006119e9611958565b90506000815111611a095760405180602001604052806000815250611a34565b80611a1384611ce9565b604051602001611a2492919061271e565b6040516020818303038152906040525b915050919050565b505050565b6000611a4c826109d8565b9050611a5a81600084611a3c565b611a656000836114b6565b6001600360008373ffffffffffffffffffffffffffffffffffffffff1673ffffffffffffffffffffffffffffffffffffffff1681526020019081526020016000206000828254611ab59190612c29565b925050819055506002600083815260200190815260200160002060006101000a81549073ffffffffffffffffffffffffffffffffffffffff021916905581600073ffffffffffffffffffffffffffffffffffffffff168273ffffffffffffffffffffffffffffffffffffffff167fddf252ad1be2c89b69c2b068fc378daa952ba7f163c4a11628f55a4df523b3ef60405160405180910390a45050565b6000611b738473ffffffffffffffffffffffffffffffffffffffff16611e4a565b15611cdc578373ffffffffffffffffffffffffffffffffffffffff1663150b7a02611b9c6114ae565b8786866040518563ffffffff1660e01b8152600401611bbe949392919061275d565b602060405180830381600087803b158015611bd857600080fd5b505af1925050508015611c0957506040513d601f19601f82011682018060405250810190611c0691906122b9565b60015b611c8c573d8060008114611c39576040519150601f19603f3d011682016040523d82523d6000602084013e611c3e565b606091505b50600081511415611c84576040517f08c379a0000000000000000000000000000000000000000000000000000000008152600401611c7b9061283d565b60405180910390fd5b805181602001fd5b63150b7a0260e01b7bffffffffffffffffffffffffffffffffffffffffffffffffffffffff1916817bffffffffffffffffffffffffffffffffffffffffffffffffffffffff191614915050611ce1565b600190505b949350505050565b60606000821415611d31576040518060400160405280600181526020017f30000000000000000000000000000000000000000000000000000000000000008152509050611e45565b600082905060005b60008214611d63578080611d4c90612d76565b915050600a82611d5c9190612bf8565b9150611d39565b60008167ffffffffffffffff811115611d7f57611d7e612eac565b5b6040519080825280601f01601f191660200182016040528015611db15781602001600182028036833780820191505090505b5090505b60008514611e3e57600182611dca9190612c29565b9150600a85611dd99190612dbf565b6030611de59190612ba2565b60f81b818381518110611dfb57611dfa612e7d565b5b60200101907effffffffffffffffffffffffffffffffffffffffffffffffffffffffffffff1916908160001a905350600a85611e379190612bf8565b9450611db5565b8093505050505b919050565b600080823b905060008111915050919050565b828054611e6990612d13565b90600052602060002090601f016020900481019282611e8b5760008555611ed2565b82601f10611ea457805160ff1916838001178555611ed2565b82800160010185558215611ed2579182015b82811115611ed1578251825591602001919060010190611eb6565b5b509050611edf9190611f23565b5090565b508054611eef90612d13565b6000825580601f10611f015750611f20565b601f016020900490600052602060002090810190611f1f9190611f23565b5b50565b5b80821115611f3c576000816000905550600101611f24565b5090565b6000611f53611f4e84612afd565b612ad8565b905082815260208101848484011115611f6f57611f6e612ee0565b5b611f7a848285612cd1565b509392505050565b6000611f95611f9084612b2e565b612ad8565b905082815260208101848484011115611fb157611fb0612ee0565b5b611fbc848285612cd1565b509392505050565b600081359050611fd38161344b565b92915050565b600081359050611fe881613462565b92915050565b600081359050611ffd81613479565b92915050565b60008151905061201281613479565b92915050565b600082601f83011261202d5761202c612edb565b5b813561203d848260208601611f40565b91505092915050565b600082601f83011261205b5761205a612edb565b5b813561206b848260208601611f82565b91505092915050565b60008135905061208381613490565b92915050565b60006020828403121561209f5761209e612eea565b5b60006120ad84828501611fc4565b91505092915050565b600080604083850312156120cd576120cc612eea565b5b60006120db85828601611fc4565b92505060206120ec85828601611fc4565b9150509250929050565b60008060006060848603121561210f5761210e612eea565b5b600061211d86828701611fc4565b935050602061212e86828701611fc4565b925050604061213f86828701612074565b9150509250925092565b6000806000806080858703121561216357612162612eea565b5b600061217187828801611fc4565b945050602061218287828801611fc4565b935050604061219387828801612074565b925050606085013567ffffffffffffffff8111156121b4576121b3612ee5565b5b6121c087828801612018565b91505092959194509250565b600080604083850312156121e3576121e2612eea565b5b60006121f185828601611fc4565b925050602061220285828601611fd9565b9150509250929050565b6000806040838503121561222357612222612eea565b5b600061223185828601611fc4565b925050602061224285828601612074565b9150509250929050565b6000806040838503121561226357612262612eea565b5b600061227185828601611fd9565b925050602061228285828601612074565b9150509250929050565b6000602082840312156122a2576122a1612eea565b5b60006122b084828501611fee565b91505092915050565b6000602082840312156122cf576122ce612eea565b5b60006122dd84828501612003565b91505092915050565b600080604083850312156122fd576122fc612eea565b5b600083013567ffffffffffffffff81111561231b5761231a612ee5565b5b61232785828601612046565b925050602061233885828601612074565b9150509250929050565b60006020828403121561235857612357612eea565b5b600061236684828501612074565b91505092915050565b61237881612c5d565b82525050565b61238781612c6f565b82525050565b600061239882612b5f565b6123a28185612b75565b93506123b2818560208601612ce0565b6123bb81612eef565b840191505092915050565b60006123d182612b6a565b6123db8185612b86565b93506123eb818560208601612ce0565b6123f481612eef565b840191505092915050565b600061240a82612b6a565b6124148185612b97565b9350612424818560208601612ce0565b80840191505092915050565b600061243d601783612b86565b915061244882612f00565b602082019050919050565b6000612460603283612b86565b915061246b82612f29565b604082019050919050565b6000612483601983612b86565b915061248e82612f78565b602082019050919050565b60006124a6601c83612b86565b91506124b182612fa1565b602082019050919050565b60006124c9600f83612b86565b91506124d482612fca565b602082019050919050565b60006124ec602483612b86565b91506124f782612ff3565b604082019050919050565b600061250f601983612b86565b915061251a82613042565b602082019050919050565b6000612532602c83612b86565b915061253d8261306b565b604082019050919050565b6000612555603883612b86565b9150612560826130ba565b604082019050919050565b6000612578602a83612b86565b915061258382613109565b604082019050919050565b600061259b602983612b86565b91506125a682613158565b604082019050919050565b60006125be602e83612b86565b91506125c9826131a7565b604082019050919050565b60006125e1602083612b86565b91506125ec826131f6565b602082019050919050565b6000612604603183612b86565b915061260f8261321f565b604082019050919050565b6000612627602c83612b86565b91506126328261326e565b604082019050919050565b600061264a602983612b86565b9150612655826132bd565b604082019050919050565b600061266d602f83612b86565b91506126788261330c565b604082019050919050565b6000612690602183612b86565b915061269b8261335b565b604082019050919050565b60006126b3601783612b86565b91506126be826133aa565b602082019050919050565b60006126d6603183612b86565b91506126e1826133d3565b604082019050919050565b60006126f9601083612b86565b915061270482613422565b602082019050919050565b61271881612cc7565b82525050565b600061272a82856123ff565b915061273682846123ff565b91508190509392505050565b6000602082019050612757600083018461236f565b92915050565b6000608082019050612772600083018761236f565b61277f602083018661236f565b61278c604083018561270f565b818103606083015261279e818461238d565b905095945050505050565b60006060820190506127be600083018661236f565b6127cb602083018561237e565b6127d8604083018461270f565b949350505050565b60006020820190506127f5600083018461237e565b92915050565b6000602082019050818103600083015261281581846123c6565b905092915050565b6000602082019050818103600083015261283681612430565b9050919050565b6000602082019050818103600083015261285681612453565b9050919050565b6000602082019050818103600083015261287681612476565b9050919050565b6000602082019050818103600083015261289681612499565b9050919050565b600060208201905081810360008301526128b6816124bc565b9050919050565b600060208201905081810360008301526128d6816124df565b9050919050565b600060208201905081810360008301526128f681612502565b9050919050565b6000602082019050818103600083015261291681612525565b9050919050565b6000602082019050818103600083015261293681612548565b9050919050565b600060208201905081810360008301526129568161256b565b9050919050565b600060208201905081810360008301526129768161258e565b9050919050565b60006020820190508181036000830152612996816125b1565b9050919050565b600060208201905081810360008301526129b6816125d4565b9050919050565b600060208201905081810360008301526129d6816125f7565b9050919050565b600060208201905081810360008301526129f68161261a565b9050919050565b60006020820190508181036000830152612a168161263d565b9050919050565b60006020820190508181036000830152612a3681612660565b9050919050565b60006020820190508181036000830152612a5681612683565b9050919050565b60006020820190508181036000830152612a76816126a6565b9050919050565b60006020820190508181036000830152612a96816126c9565b9050919050565b60006020820190508181036000830152612ab6816126ec565b9050919050565b6000602082019050612ad2600083018461270f565b92915050565b6000612ae2612af3565b9050612aee8282612d45565b919050565b6000604051905090565b600067ffffffffffffffff821115612b1857612b17612eac565b5b612b2182612eef565b9050602081019050919050565b600067ffffffffffffffff821115612b4957612b48612eac565b5b612b5282612eef565b9050602081019050919050565b600081519050919050565b600081519050919050565b600082825260208201905092915050565b600082825260208201905092915050565b600081905092915050565b6000612bad82612cc7565b9150612bb883612cc7565b9250827fffffffffffffffffffffffffffffffffffffffffffffffffffffffffffffffff03821115612bed57612bec612df0565b5b828201905092915050565b6000612c0382612cc7565b9150612c0e83612cc7565b925082612c1e57612c1d612e1f565b5b828204905092915050565b6000612c3482612cc7565b9150612c3f83612cc7565b925082821015612c5257612c51612df0565b5b828203905092915050565b6000612c6882612ca7565b9050919050565b60008115159050919050565b60007fffffffff0000000000000000000000000000000000000000000000000000000082169050919050565b600073ffffffffffffffffffffffffffffffffffffffff82169050919050565b6000819050919050565b82818337600083830152505050565b60005b83811015612cfe578082015181840152602081019050612ce3565b83811115612d0d576000848401525b50505050565b60006002820490506001821680612d2b57607f821691505b60208210811415612d3f57612d3e612e4e565b5b50919050565b612d4e82612eef565b810181811067ffffffffffffffff82111715612d6d57612d6c612eac565b5b80604052505050565b6000612d8182612cc7565b91507fffffffffffffffffffffffffffffffffffffffffffffffffffffffffffffffff821415612db457612db3612df0565b5b600182019050919050565b6000612dca82612cc7565b9150612dd583612cc7565b925082612de557612de4612e1f565b5b828206905092915050565b7f4e487b7100000000000000000000000000000000000000000000000000000000600052601160045260246000fd5b7f4e487b7100000000000000000000000000000000000000000000000000000000600052601260045260246000fd5b7f4e487b7100000000000000000000000000000000000000000000000000000000600052602260045260246000fd5b7f4e487b7100000000000000000000000000000000000000000000000000000000600052603260045260246000fd5b7f4e487b7100000000000000000000000000000000000000000000000000000000600052604160045260246000fd5b600080fd5b600080fd5b600080fd5b600080fd5b6000601f19601f8301169050919050565b7f4e6f7420617574686f726973656420746f206275726e2e000000000000000000600082015250565b7f4552433732313a207472616e7366657220746f206e6f6e20455243373231526560008201527f63656976657220696d706c656d656e7465720000000000000000000000000000602082015250565b7f526f79616c7479206e6f742073657420666f7220746f6b656e00000000000000600082015250565b7f4552433732313a20746f6b656e20616c7265616479206d696e74656400000000600082015250565b7f546f6b656e206e6f7420796f7572730000000000000000000000000000000000600082015250565b7f4552433732313a207472616e7366657220746f20746865207a65726f2061646460008201527f7265737300000000000000000000000000000000000000000000000000000000602082015250565b7f4552433732313a20617070726f766520746f2063616c6c657200000000000000600082015250565b7f4552433732313a206f70657261746f7220717565727920666f72206e6f6e657860008201527f697374656e7420746f6b656e0000000000000000000000000000000000000000602082015250565b7f4552433732313a20617070726f76652063616c6c6572206973206e6f74206f7760008201527f6e6572206e6f7220617070726f76656420666f7220616c6c0000000000000000602082015250565b7f4552433732313a2062616c616e636520717565727920666f7220746865207a6560008201527f726f206164647265737300000000000000000000000000000000000000000000602082015250565b7f4552433732313a206f776e657220717565727920666f72206e6f6e657869737460008201527f656e7420746f6b656e0000000000000000000000000000000000000000000000602082015250565b7f45524337323155524953746f726167653a2055524920736574206f66206e6f6e60008201527f6578697374656e7420746f6b656e000000000000000000000000000000000000602082015250565b7f4552433732313a206d696e7420746f20746865207a65726f2061646472657373600082015250565b7f45524337323155524953746f726167653a2055524920717565727920666f722060008201527f6e6f6e6578697374656e7420746f6b656e000000000000000000000000000000602082015250565b7f4552433732313a20617070726f76656420717565727920666f72206e6f6e657860008201527f697374656e7420746f6b656e0000000000000000000000000000000000000000602082015250565b7f4552433732313a207472616e73666572206f6620746f6b656e2074686174206960008201527f73206e6f74206f776e0000000000000000000000000000000000000000000000602082015250565b7f4552433732314d657461646174613a2055524920717565727920666f72206e6f60008201527f6e6578697374656e7420746f6b656e0000000000000000000000000000000000602082015250565b7f4552433732313a20617070726f76616c20746f2063757272656e74206f776e6560008201527f7200000000000000000000000000000000000000000000000000000000000000602082015250565b7f526f79616c74792061626f7665207468726573686f6c64000000000000000000600082015250565b7f4552433732313a207472616e736665722063616c6c6572206973206e6f74206f60008201527f776e6572206e6f7220617070726f766564000000000000000000000000000000602082015250565b7f55736572204e6f7420416c6c6f77656400000000000000000000000000000000600082015250565b61345481612c5d565b811461345f57600080fd5b50565b61346b81612c6f565b811461347657600080fd5b50565b61348281612c7b565b811461348d57600080fd5b50565b61349981612cc7565b81146134a457600080fd5b5056fea2646970667358221220e23fe1efb8c2db10ceaddd674ae33c62f747a5bf54ca73af231e617b715e303e64736f6c63430008060033a2646970667358221220dea53ab39a94056176ddd4d9cc73390132be6c32219aa04d770c45014a19da1464736f6c6343000806003360806040523480156200001157600080fd5b50604051620039fc380380620039fc833981810160405281019062000037919062000258565b848481600090805190602001906200005192919062000113565b5080600190805190602001906200006a92919062000113565b50505082600890805190602001906200008592919062000113565b5081600a60006101000a81548173ffffffffffffffffffffffffffffffffffffffff021916908373ffffffffffffffffffffffffffffffffffffffff16021790555080600960006101000a81548173ffffffffffffffffffffffffffffffffffffffff021916908373ffffffffffffffffffffffffffffffffffffffff16021790555050505050506200050f565b828054620001219062000406565b90600052602060002090601f01602090048101928262000145576000855562000191565b82601f106200016057805160ff191683800117855562000191565b8280016001018555821562000191579182015b828111156200019057825182559160200191906001019062000173565b5b509050620001a09190620001a4565b5090565b5b80821115620001bf576000816000905550600101620001a5565b5090565b6000620001da620001d48462000366565b6200033d565b905082815260208101848484011115620001f957620001f8620004d5565b5b62000206848285620003d0565b509392505050565b6000815190506200021f81620004f5565b92915050565b600082601f8301126200023d576200023c620004d0565b5b81516200024f848260208601620001c3565b91505092915050565b600080600080600060a08688031215620002775762000276620004df565b5b600086015167ffffffffffffffff811115620002985762000297620004da565b5b620002a68882890162000225565b955050602086015167ffffffffffffffff811115620002ca57620002c9620004da565b5b620002d88882890162000225565b945050604086015167ffffffffffffffff811115620002fc57620002fb620004da565b5b6200030a8882890162000225565b93505060606200031d888289016200020e565b925050608062000330888289016200020e565b9150509295509295909350565b6000620003496200035c565b90506200035782826200043c565b919050565b6000604051905090565b600067ffffffffffffffff821115620003845762000383620004a1565b5b6200038f82620004e4565b9050602081019050919050565b6000620003a982620003b0565b9050919050565b600073ffffffffffffffffffffffffffffffffffffffff82169050919050565b60005b83811015620003f0578082015181840152602081019050620003d3565b8381111562000400576000848401525b50505050565b600060028204905060018216806200041f57607f821691505b6020821081141562000436576200043562000472565b5b50919050565b6200044782620004e4565b810181811067ffffffffffffffff82111715620004695762000468620004a1565b5b80604052505050565b7f4e487b7100000000000000000000000000000000000000000000000000000000600052602260045260246000fd5b7f4e487b7100000000000000000000000000000000000000000000000000000000600052604160045260246000fd5b600080fd5b600080fd5b600080fd5b600080fd5b6000601f19601f8301169050919050565b62000500816200039c565b81146200050c57600080fd5b50565b6134dd806200051f6000396000f3fe608060405234801561001057600080fd5b506004361061010b5760003560e01c80636352211e116100a2578063b88d4fde11610071578063b88d4fde146102b4578063c87b56dd146102d0578063cef6d36814610300578063e8d8c91614610332578063e985e9c51461034e5761010b565b80636352211e1461021a57806370a082311461024a57806395d89b411461027a578063a22cb465146102985761010b565b8063095ea7b3116100de578063095ea7b3146101aa57806323b872dd146101c657806342842e0e146101e257806342966c68146101fe5761010b565b806301ffc9a714610110578063056b01ce1461014057806306fdde031461015c578063081812fc1461017a575b600080fd5b61012a6004803603810190610125919061228c565b61037e565b60405161013791906127e0565b60405180910390f35b61015a600480360381019061015591906122e6565b610460565b005b6101646106a7565b60405161017191906127fb565b60405180910390f35b610194600480360381019061018f9190612342565b610739565b6040516101a19190612742565b60405180910390f35b6101c460048036038101906101bf919061220c565b6107be565b005b6101e060048036038101906101db91906120f6565b6108d6565b005b6101fc60048036038101906101f791906120f6565b610936565b005b61021860048036038101906102139190612342565b610956565b005b610234600480360381019061022f9190612342565b6109d8565b6040516102419190612742565b60405180910390f35b610264600480360381019061025f9190612089565b610a8a565b6040516102719190612abd565b60405180910390f35b610282610b42565b60405161028f91906127fb565b60405180910390f35b6102b260048036038101906102ad91906121cc565b610bd4565b005b6102ce60048036038101906102c99190612149565b610d55565b005b6102ea60048036038101906102e59190612342565b610db7565b6040516102f791906127fb565b60405180910390f35b61031a60048036038101906103159190612342565b610f09565b604051610329939291906127a9565b60405180910390f35b61034c6004803603810190610347919061224c565b610f60565b005b610368600480360381019061036391906120b6565b6110de565b60405161037591906127e0565b60405180910390f35b60007f80ac58cd000000000000000000000000000000000000000000000000000000007bffffffffffffffffffffffffffffffffffffffffffffffffffffffff1916827bffffffffffffffffffffffffffffffffffffffffffffffffffffffff1916148061044957507f5b5e139f000000000000000000000000000000000000000000000000000000007bffffffffffffffffffffffffffffffffffffffffffffffffffffffff1916827bffffffffffffffffffffffffffffffffffffffffffffffffffffffff1916145b80610459575061045882611172565b5b9050919050565b600a60009054906101000a900473ffffffffffffffffffffffffffffffffffffffff1673ffffffffffffffffffffffffffffffffffffffff16600960009054906101000a900473ffffffffffffffffffffffffffffffffffffffff1673ffffffffffffffffffffffffffffffffffffffff1614610568573373ffffffffffffffffffffffffffffffffffffffff16600960009054906101000a900473ffffffffffffffffffffffffffffffffffffffff1673ffffffffffffffffffffffffffffffffffffffff1614610567576040517f08c379a000000000000000000000000000000000000000000000000000000000815260040161055e90612a9d565b60405180910390fd5b5b6000811015801561057a575060328111155b6105b9576040517f08c379a00000000000000000000000000000000000000000000000000000000081526004016105b090612a5d565b60405180910390fd5b6105c360076111dc565b60006105cf60076111f2565b90506105db3382611200565b6105e581846113ce565b610612600a60009054906101000a900473ffffffffffffffffffffffffffffffffffffffff166001610bd4565b6000600b60008381526020019081526020016000209050338160000160006101000a81548173ffffffffffffffffffffffffffffffffffffffff021916908373ffffffffffffffffffffffffffffffffffffffff16021790555060008314156106975760018160000160146101000a81548160ff0219169083151502179055506106a1565b8281600101819055505b50505050565b6060600080546106b690612d13565b80601f01602080910402602001604051908101604052809291908181526020018280546106e290612d13565b801561072f5780601f106107045761010080835404028352916020019161072f565b820191906000526020600020905b81548152906001019060200180831161071257829003601f168201915b5050505050905090565b600061074482611442565b610783576040517f08c379a000000000000000000000000000000000000000000000000000000000815260040161077a906129dd565b60405180910390fd5b6004600083815260200190815260200160002060009054906101000a900473ffffffffffffffffffffffffffffffffffffffff169050919050565b60006107c9826109d8565b90508073ffffffffffffffffffffffffffffffffffffffff168373ffffffffffffffffffffffffffffffffffffffff16141561083a576040517f08c379a000000000000000000000000000000000000000000000000000000000815260040161083190612a3d565b60405180910390fd5b8073ffffffffffffffffffffffffffffffffffffffff166108596114ae565b73ffffffffffffffffffffffffffffffffffffffff1614806108885750610887816108826114ae565b6110de565b5b6108c7576040517f08c379a00000000000000000000000000000000000000000000000000000000081526004016108be9061291d565b60405180910390fd5b6108d183836114b6565b505050565b6108e76108e16114ae565b8261156f565b610926576040517f08c379a000000000000000000000000000000000000000000000000000000000815260040161091d90612a7d565b60405180910390fd5b61093183838361164d565b505050565b61095183838360405180602001604052806000815250610d55565b505050565b3373ffffffffffffffffffffffffffffffffffffffff16610976826109d8565b73ffffffffffffffffffffffffffffffffffffffff16146109cc576040517f08c379a00000000000000000000000000000000000000000000000000000000081526004016109c39061281d565b60405180910390fd5b6109d5816118a9565b50565b6000806002600084815260200190815260200160002060009054906101000a900473ffffffffffffffffffffffffffffffffffffffff169050600073ffffffffffffffffffffffffffffffffffffffff168173ffffffffffffffffffffffffffffffffffffffff161415610a81576040517f08c379a0000000000000000000000000000000000000000000000000000000008152600401610a789061295d565b60405180910390fd5b80915050919050565b60008073ffffffffffffffffffffffffffffffffffffffff168273ffffffffffffffffffffffffffffffffffffffff161415610afb576040517f08c379a0000000000000000000000000000000000000000000000000000000008152600401610af29061293d565b60405180910390fd5b600360008373ffffffffffffffffffffffffffffffffffffffff1673ffffffffffffffffffffffffffffffffffffffff168152602001908152602001600020549050919050565b606060018054610b5190612d13565b80601f0160208091040260200160405190810160405280929190818152602001828054610b7d90612d13565b8015610bca5780601f10610b9f57610100808354040283529160200191610bca565b820191906000526020600020905b815481529060010190602001808311610bad57829003601f168201915b5050505050905090565b610bdc6114ae565b73ffffffffffffffffffffffffffffffffffffffff168273ffffffffffffffffffffffffffffffffffffffff161415610c4a576040517f08c379a0000000000000000000000000000000000000000000000000000000008152600401610c41906128dd565b60405180910390fd5b8060056000610c576114ae565b73ffffffffffffffffffffffffffffffffffffffff1673ffffffffffffffffffffffffffffffffffffffff16815260200190815260200160002060008473ffffffffffffffffffffffffffffffffffffffff1673ffffffffffffffffffffffffffffffffffffffff16815260200190815260200160002060006101000a81548160ff0219169083151502179055508173ffffffffffffffffffffffffffffffffffffffff16610d046114ae565b73ffffffffffffffffffffffffffffffffffffffff167f17307eab39ab6107e8899845ad3d59bd9653f200f220920489ca2b5937696c3183604051610d4991906127e0565b60405180910390a35050565b610d66610d606114ae565b8361156f565b610da5576040517f08c379a0000000000000000000000000000000000000000000000000000000008152600401610d9c90612a7d565b60405180910390fd5b610db1848484846118fc565b50505050565b6060610dc282611442565b610e01576040517f08c379a0000000000000000000000000000000000000000000000000000000008152600401610df8906129bd565b60405180910390fd5b6000600660008481526020019081526020016000208054610e2190612d13565b80601f0160208091040260200160405190810160405280929190818152602001828054610e4d90612d13565b8015610e9a5780601f10610e6f57610100808354040283529160200191610e9a565b820191906000526020600020905b815481529060010190602001808311610e7d57829003601f168201915b505050505090506000610eab611958565b9050600081511415610ec1578192505050610f04565b600082511115610ef6578082604051602001610ede92919061271e565b60405160208183030381529060405292505050610f04565b610eff84611995565b925050505b919050565b600b6020528060005260406000206000915090508060000160009054906101000a900473ffffffffffffffffffffffffffffffffffffffff16908060000160149054906101000a900460ff16908060010154905083565b3373ffffffffffffffffffffffffffffffffffffffff16600b600083815260200190815260200160002060000160009054906101000a900473ffffffffffffffffffffffffffffffffffffffff1673ffffffffffffffffffffffffffffffffffffffff1614611004576040517f08c379a0000000000000000000000000000000000000000000000000000000008152600401610ffb9061289d565b60405180910390fd5b6000600b600083815260200190815260200160002060010154141561105e576040517f08c379a00000000000000000000000000000000000000000000000000000000081526004016110559061285d565b60405180910390fd5b81600b600083815260200190815260200160002060000160146101000a81548160ff0219169083151502179055503373ffffffffffffffffffffffffffffffffffffffff167fad7f145777ce4d0af2388cfccbec6e35925f6bff26a9fa167fb64f9dcc1a1b22826040516110d29190612abd565b60405180910390a25050565b6000600560008473ffffffffffffffffffffffffffffffffffffffff1673ffffffffffffffffffffffffffffffffffffffff16815260200190815260200160002060008373ffffffffffffffffffffffffffffffffffffffff1673ffffffffffffffffffffffffffffffffffffffff16815260200190815260200160002060009054906101000a900460ff16905092915050565b60007f01ffc9a7000000000000000000000000000000000000000000000000000000007bffffffffffffffffffffffffffffffffffffffffffffffffffffffff1916827bffffffffffffffffffffffffffffffffffffffffffffffffffffffff1916149050919050565b6001816000016000828254019250508190555050565b600081600001549050919050565b600073ffffffffffffffffffffffffffffffffffffffff168273ffffffffffffffffffffffffffffffffffffffff161415611270576040517f08c379a00000000000000000000000000000000000000000000000000000000081526004016112679061299d565b60405180910390fd5b61127981611442565b156112b9576040517f08c379a00000000000000000000000000000000000000000000000000000000081526004016112b09061287d565b60405180910390fd5b6112c560008383611a3c565b6001600360008473ffffffffffffffffffffffffffffffffffffffff1673ffffffffffffffffffffffffffffffffffffffff16815260200190815260200160002060008282546113159190612ba2565b92505081905550816002600083815260200190815260200160002060006101000a81548173ffffffffffffffffffffffffffffffffffffffff021916908373ffffffffffffffffffffffffffffffffffffffff160217905550808273ffffffffffffffffffffffffffffffffffffffff16600073ffffffffffffffffffffffffffffffffffffffff167fddf252ad1be2c89b69c2b068fc378daa952ba7f163c4a11628f55a4df523b3ef60405160405180910390a45050565b6113d782611442565b611416576040517f08c379a000000000000000000000000000000000000000000000000000000000815260040161140d9061297d565b60405180910390fd5b8060066000848152602001908152602001600020908051906020019061143d929190611e5d565b505050565b60008073ffffffffffffffffffffffffffffffffffffffff166002600084815260200190815260200160002060009054906101000a900473ffffffffffffffffffffffffffffffffffffffff1673ffffffffffffffffffffffffffffffffffffffff1614159050919050565b600033905090565b816004600083815260200190815260200160002060006101000a81548173ffffffffffffffffffffffffffffffffffffffff021916908373ffffffffffffffffffffffffffffffffffffffff160217905550808273ffffffffffffffffffffffffffffffffffffffff16611529836109d8565b73ffffffffffffffffffffffffffffffffffffffff167f8c5be1e5ebec7d5bd14f71427d1e84f3dd0314c0f7b2291e5b200ac8c7c3b92560405160405180910390a45050565b600061157a82611442565b6115b9576040517f08c379a00000000000000000000000000000000000000000000000000000000081526004016115b0906128fd565b60405180910390fd5b60006115c4836109d8565b90508073ffffffffffffffffffffffffffffffffffffffff168473ffffffffffffffffffffffffffffffffffffffff16148061163357508373ffffffffffffffffffffffffffffffffffffffff1661161b84610739565b73ffffffffffffffffffffffffffffffffffffffff16145b80611644575061164381856110de565b5b91505092915050565b8273ffffffffffffffffffffffffffffffffffffffff1661166d826109d8565b73ffffffffffffffffffffffffffffffffffffffff16146116c3576040517f08c379a00000000000000000000000000000000000000000000000000000000081526004016116ba906129fd565b60405180910390fd5b600073ffffffffffffffffffffffffffffffffffffffff168273ffffffffffffffffffffffffffffffffffffffff161415611733576040517f08c379a000000000000000000000000000000000000000000000000000000000815260040161172a906128bd565b60405180910390fd5b61173e838383611a3c565b6117496000826114b6565b6001600360008573ffffffffffffffffffffffffffffffffffffffff1673ffffffffffffffffffffffffffffffffffffffff16815260200190815260200160002060008282546117999190612c29565b925050819055506001600360008473ffffffffffffffffffffffffffffffffffffffff1673ffffffffffffffffffffffffffffffffffffffff16815260200190815260200160002060008282546117f09190612ba2565b92505081905550816002600083815260200190815260200160002060006101000a81548173ffffffffffffffffffffffffffffffffffffffff021916908373ffffffffffffffffffffffffffffffffffffffff160217905550808273ffffffffffffffffffffffffffffffffffffffff168473ffffffffffffffffffffffffffffffffffffffff167fddf252ad1be2c89b69c2b068fc378daa952ba7f163c4a11628f55a4df523b3ef60405160405180910390a4505050565b6118b281611a41565b60006006600083815260200190815260200160002080546118d290612d13565b9050146118f9576006600082815260200190815260200160002060006118f89190611ee3565b5b50565b61190784848461164d565b61191384848484611b52565b611952576040517f08c379a00000000000000000000000000000000000000000000000000000000081526004016119499061283d565b60405180910390fd5b50505050565b60606040518060400160405280601c81526020017f68747470733a2f2f697066732e696e667572612e696f2f697066732f00000000815250905090565b60606119a082611442565b6119df576040517f08c379a00000000000000000000000000000000000000000000000000000000081526004016119d690612a1d565b60405180910390fd5b60006119e9611958565b90506000815111611a095760405180602001604052806000815250611a34565b80611a1384611ce9565b604051602001611a2492919061271e565b6040516020818303038152906040525b915050919050565b505050565b6000611a4c826109d8565b9050611a5a81600084611a3c565b611a656000836114b6565b6001600360008373ffffffffffffffffffffffffffffffffffffffff1673ffffffffffffffffffffffffffffffffffffffff1681526020019081526020016000206000828254611ab59190612c29565b925050819055506002600083815260200190815260200160002060006101000a81549073ffffffffffffffffffffffffffffffffffffffff021916905581600073ffffffffffffffffffffffffffffffffffffffff168273ffffffffffffffffffffffffffffffffffffffff167fddf252ad1be2c89b69c2b068fc378daa952ba7f163c4a11628f55a4df523b3ef60405160405180910390a45050565b6000611b738473ffffffffffffffffffffffffffffffffffffffff16611e4a565b15611cdc578373ffffffffffffffffffffffffffffffffffffffff1663150b7a02611b9c6114ae565b8786866040518563ffffffff1660e01b8152600401611bbe949392919061275d565b602060405180830381600087803b158015611bd857600080fd5b505af1925050508015611c0957506040513d601f19601f82011682018060405250810190611c0691906122b9565b60015b611c8c573d8060008114611c39576040519150601f19603f3d011682016040523d82523d6000602084013e611c3e565b606091505b50600081511415611c84576040517f08c379a0000000000000000000000000000000000000000000000000000000008152600401611c7b9061283d565b60405180910390fd5b805181602001fd5b63150b7a0260e01b7bffffffffffffffffffffffffffffffffffffffffffffffffffffffff1916817bffffffffffffffffffffffffffffffffffffffffffffffffffffffff191614915050611ce1565b600190505b949350505050565b60606000821415611d31576040518060400160405280600181526020017f30000000000000000000000000000000000000000000000000000000000000008152509050611e45565b600082905060005b60008214611d63578080611d4c90612d76565b915050600a82611d5c9190612bf8565b9150611d39565b60008167ffffffffffffffff811115611d7f57611d7e612eac565b5b6040519080825280601f01601f191660200182016040528015611db15781602001600182028036833780820191505090505b5090505b60008514611e3e57600182611dca9190612c29565b9150600a85611dd99190612dbf565b6030611de59190612ba2565b60f81b818381518110611dfb57611dfa612e7d565b5b60200101907effffffffffffffffffffffffffffffffffffffffffffffffffffffffffffff1916908160001a905350600a85611e379190612bf8565b9450611db5565b8093505050505b919050565b600080823b905060008111915050919050565b828054611e6990612d13565b90600052602060002090601f016020900481019282611e8b5760008555611ed2565b82601f10611ea457805160ff1916838001178555611ed2565b82800160010185558215611ed2579182015b82811115611ed1578251825591602001919060010190611eb6565b5b509050611edf9190611f23565b5090565b508054611eef90612d13565b6000825580601f10611f015750611f20565b601f016020900490600052602060002090810190611f1f9190611f23565b5b50565b5b80821115611f3c576000816000905550600101611f24565b5090565b6000611f53611f4e84612afd565b612ad8565b905082815260208101848484011115611f6f57611f6e612ee0565b5b611f7a848285612cd1565b509392505050565b6000611f95611f9084612b2e565b612ad8565b905082815260208101848484011115611fb157611fb0612ee0565b5b611fbc848285612cd1565b509392505050565b600081359050611fd38161344b565b92915050565b600081359050611fe881613462565b92915050565b600081359050611ffd81613479565b92915050565b60008151905061201281613479565b92915050565b600082601f83011261202d5761202c612edb565b5b813561203d848260208601611f40565b91505092915050565b600082601f83011261205b5761205a612edb565b5b813561206b848260208601611f82565b91505092915050565b60008135905061208381613490565b92915050565b60006020828403121561209f5761209e612eea565b5b60006120ad84828501611fc4565b91505092915050565b600080604083850312156120cd576120cc612eea565b5b60006120db85828601611fc4565b92505060206120ec85828601611fc4565b9150509250929050565b60008060006060848603121561210f5761210e612eea565b5b600061211d86828701611fc4565b935050602061212e86828701611fc4565b925050604061213f86828701612074565b9150509250925092565b6000806000806080858703121561216357612162612eea565b5b600061217187828801611fc4565b945050602061218287828801611fc4565b935050604061219387828801612074565b925050606085013567ffffffffffffffff8111156121b4576121b3612ee5565b5b6121c087828801612018565b91505092959194509250565b600080604083850312156121e3576121e2612eea565b5b60006121f185828601611fc4565b925050602061220285828601611fd9565b9150509250929050565b6000806040838503121561222357612222612eea565b5b600061223185828601611fc4565b925050602061224285828601612074565b9150509250929050565b6000806040838503121561226357612262612eea565b5b600061227185828601611fd9565b925050602061228285828601612074565b9150509250929050565b6000602082840312156122a2576122a1612eea565b5b60006122b084828501611fee565b91505092915050565b6000602082840312156122cf576122ce612eea565b5b60006122dd84828501612003565b91505092915050565b600080604083850312156122fd576122fc612eea565b5b600083013567ffffffffffffffff81111561231b5761231a612ee5565b5b61232785828601612046565b925050602061233885828601612074565b9150509250929050565b60006020828403121561235857612357612eea565b5b600061236684828501612074565b91505092915050565b61237881612c5d565b82525050565b61238781612c6f565b82525050565b600061239882612b5f565b6123a28185612b75565b93506123b2818560208601612ce0565b6123bb81612eef565b840191505092915050565b60006123d182612b6a565b6123db8185612b86565b93506123eb818560208601612ce0565b6123f481612eef565b840191505092915050565b600061240a82612b6a565b6124148185612b97565b9350612424818560208601612ce0565b80840191505092915050565b600061243d601783612b86565b915061244882612f00565b602082019050919050565b6000612460603283612b86565b915061246b82612f29565b604082019050919050565b6000612483601983612b86565b915061248e82612f78565b602082019050919050565b60006124a6601c83612b86565b91506124b182612fa1565b602082019050919050565b60006124c9600f83612b86565b91506124d482612fca565b602082019050919050565b60006124ec602483612b86565b91506124f782612ff3565b604082019050919050565b600061250f601983612b86565b915061251a82613042565b602082019050919050565b6000612532602c83612b86565b915061253d8261306b565b604082019050919050565b6000612555603883612b86565b9150612560826130ba565b604082019050919050565b6000612578602a83612b86565b915061258382613109565b604082019050919050565b600061259b602983612b86565b91506125a682613158565b604082019050919050565b60006125be602e83612b86565b91506125c9826131a7565b604082019050919050565b60006125e1602083612b86565b91506125ec826131f6565b602082019050919050565b6000612604603183612b86565b915061260f8261321f565b604082019050919050565b6000612627602c83612b86565b91506126328261326e565b604082019050919050565b600061264a602983612b86565b9150612655826132bd565b604082019050919050565b600061266d602f83612b86565b91506126788261330c565b604082019050919050565b6000612690602183612b86565b915061269b8261335b565b604082019050919050565b60006126b3601783612b86565b91506126be826133aa565b602082019050919050565b60006126d6603183612b86565b91506126e1826133d3565b604082019050919050565b60006126f9601083612b86565b915061270482613422565b602082019050919050565b61271881612cc7565b82525050565b600061272a82856123ff565b915061273682846123ff565b91508190509392505050565b6000602082019050612757600083018461236f565b92915050565b6000608082019050612772600083018761236f565b61277f602083018661236f565b61278c604083018561270f565b818103606083015261279e818461238d565b905095945050505050565b60006060820190506127be600083018661236f565b6127cb602083018561237e565b6127d8604083018461270f565b949350505050565b60006020820190506127f5600083018461237e565b92915050565b6000602082019050818103600083015261281581846123c6565b905092915050565b6000602082019050818103600083015261283681612430565b9050919050565b6000602082019050818103600083015261285681612453565b9050919050565b6000602082019050818103600083015261287681612476565b9050919050565b6000602082019050818103600083015261289681612499565b9050919050565b600060208201905081810360008301526128b6816124bc565b9050919050565b600060208201905081810360008301526128d6816124df565b9050919050565b600060208201905081810360008301526128f681612502565b9050919050565b6000602082019050818103600083015261291681612525565b9050919050565b6000602082019050818103600083015261293681612548565b9050919050565b600060208201905081810360008301526129568161256b565b9050919050565b600060208201905081810360008301526129768161258e565b9050919050565b60006020820190508181036000830152612996816125b1565b9050919050565b600060208201905081810360008301526129b6816125d4565b9050919050565b600060208201905081810360008301526129d6816125f7565b9050919050565b600060208201905081810360008301526129f68161261a565b9050919050565b60006020820190508181036000830152612a168161263d565b9050919050565b60006020820190508181036000830152612a3681612660565b9050919050565b60006020820190508181036000830152612a5681612683565b9050919050565b60006020820190508181036000830152612a76816126a6565b9050919050565b60006020820190508181036000830152612a96816126c9565b9050919050565b60006020820190508181036000830152612ab6816126ec565b9050919050565b6000602082019050612ad2600083018461270f565b92915050565b6000612ae2612af3565b9050612aee8282612d45565b919050565b6000604051905090565b600067ffffffffffffffff821115612b1857612b17612eac565b5b612b2182612eef565b9050602081019050919050565b600067ffffffffffffffff821115612b4957612b48612eac565b5b612b5282612eef565b9050602081019050919050565b600081519050919050565b600081519050919050565b600082825260208201905092915050565b600082825260208201905092915050565b600081905092915050565b6000612bad82612cc7565b9150612bb883612cc7565b9250827fffffffffffffffffffffffffffffffffffffffffffffffffffffffffffffffff03821115612bed57612bec612df0565b5b828201905092915050565b6000612c0382612cc7565b9150612c0e83612cc7565b925082612c1e57612c1d612e1f565b5b828204905092915050565b6000612c3482612cc7565b9150612c3f83612cc7565b925082821015612c5257612c51612df0565b5b828203905092915050565b6000612c6882612ca7565b9050919050565b60008115159050919050565b60007fffffffff0000000000000000000000000000000000000000000000000000000082169050919050565b600073ffffffffffffffffffffffffffffffffffffffff82169050919050565b6000819050919050565b82818337600083830152505050565b60005b83811015612cfe578082015181840152602081019050612ce3565b83811115612d0d576000848401525b50505050565b60006002820490506001821680612d2b57607f821691505b60208210811415612d3f57612d3e612e4e565b5b50919050565b612d4e82612eef565b810181811067ffffffffffffffff82111715612d6d57612d6c612eac565b5b80604052505050565b6000612d8182612cc7565b91507fffffffffffffffffffffffffffffffffffffffffffffffffffffffffffffffff821415612db457612db3612df0565b5b600182019050919050565b6000612dca82612cc7565b9150612dd583612cc7565b925082612de557612de4612e1f565b5b828206905092915050565b7f4e487b7100000000000000000000000000000000000000000000000000000000600052601160045260246000fd5b7f4e487b7100000000000000000000000000000000000000000000000000000000600052601260045260246000fd5b7f4e487b7100000000000000000000000000000000000000000000000000000000600052602260045260246000fd5b7f4e487b7100000000000000000000000000000000000000000000000000000000600052603260045260246000fd5b7f4e487b7100000000000000000000000000000000000000000000000000000000600052604160045260246000fd5b600080fd5b600080fd5b600080fd5b600080fd5b6000601f19601f8301169050919050565b7f4e6f7420617574686f726973656420746f206275726e2e000000000000000000600082015250565b7f4552433732313a207472616e7366657220746f206e6f6e20455243373231526560008201527f63656976657220696d706c656d656e7465720000000000000000000000000000602082015250565b7f526f79616c7479206e6f742073657420666f7220746f6b656e00000000000000600082015250565b7f4552433732313a20746f6b656e20616c7265616479206d696e74656400000000600082015250565b7f546f6b656e206e6f7420796f7572730000000000000000000000000000000000600082015250565b7f4552433732313a207472616e7366657220746f20746865207a65726f2061646460008201527f7265737300000000000000000000000000000000000000000000000000000000602082015250565b7f4552433732313a20617070726f766520746f2063616c6c657200000000000000600082015250565b7f4552433732313a206f70657261746f7220717565727920666f72206e6f6e657860008201527f697374656e7420746f6b656e0000000000000000000000000000000000000000602082015250565b7f4552433732313a20617070726f76652063616c6c6572206973206e6f74206f7760008201527f6e6572206e6f7220617070726f76656420666f7220616c6c0000000000000000602082015250565b7f4552433732313a2062616c616e636520717565727920666f7220746865207a6560008201527f726f206164647265737300000000000000000000000000000000000000000000602082015250565b7f4552433732313a206f776e657220717565727920666f72206e6f6e657869737460008201527f656e7420746f6b656e0000000000000000000000000000000000000000000000602082015250565b7f45524337323155524953746f726167653a2055524920736574206f66206e6f6e60008201527f6578697374656e7420746f6b656e000000000000000000000000000000000000602082015250565b7f4552433732313a206d696e7420746f20746865207a65726f2061646472657373600082015250565b7f45524337323155524953746f726167653a2055524920717565727920666f722060008201527f6e6f6e6578697374656e7420746f6b656e000000000000000000000000000000602082015250565b7f4552433732313a20617070726f76656420717565727920666f72206e6f6e657860008201527f697374656e7420746f6b656e0000000000000000000000000000000000000000602082015250565b7f4552433732313a207472616e73666572206f6620746f6b656e2074686174206960008201527f73206e6f74206f776e0000000000000000000000000000000000000000000000602082015250565b7f4552433732314d657461646174613a2055524920717565727920666f72206e6f60008201527f6e6578697374656e7420746f6b656e0000000000000000000000000000000000602082015250565b7f4552433732313a20617070726f76616c20746f2063757272656e74206f776e6560008201527f7200000000000000000000000000000000000000000000000000000000000000602082015250565b7f526f79616c74792061626f7665207468726573686f6c64000000000000000000600082015250565b7f4552433732313a207472616e736665722063616c6c6572206973206e6f74206f60008201527f776e6572206e6f7220617070726f766564000000000000000000000000000000602082015250565b7f55736572204e6f7420416c6c6f77656400000000000000000000000000000000600082015250565b61345481612c5d565b811461345f57600080fd5b50565b61346b81612c6f565b811461347657600080fd5b50565b61348281612c7b565b811461348d57600080fd5b50565b61349981612cc7565b81146134a457600080fd5b5056fea2646970667358221220e23fe1efb8c2db10ceaddd674ae33c62f747a5bf54ca73af231e617b715e303e64736f6c63430008060033",
  "immutableReferences": {},
  "source": "// SPDX-License-Identifier: MIT\r\n\r\npragma solidity ^0.8.0;\r\n\r\nimport \"@openzeppelin/contracts/token/ERC20/IERC20.sol\";\r\nimport \"./CreateNFT.sol\";\r\n\r\ninterface ICreateNFT {\r\n    function royaltyInfo(uint256 tokenId) external view returns (address creator, bool isExcluded, uint256 amount);\r\n    \r\n    function approve(address to, uint256 tokenId) external;\r\n    \r\n    function safeTransferFrom(address from, address to, uint256 tokenId) external;\r\n    \r\n    function setApprovalForAll(address operator, bool approved) external;\r\n\r\n    function ownerOf(uint256 tokenId) external view returns (address);\r\n}\r\n\r\ncontract MarketPlace {\r\n    CreateNFT nft;\r\n    \r\n    address public owner;\r\n    address public mptAddress;\r\n    struct MarketItemData {\r\n        bool isSold;\r\n        address contractAddress;\r\n        uint256 price;\r\n        uint256 tokenId;\r\n        string currency;\r\n        uint8 royalty;\r\n        address seller;\r\n        address buyer;\r\n        uint256 itemId;\r\n    }\r\n    mapping(uint256 => MarketItemData) public marketItems;\r\n    mapping(string => address) public currencies;\r\n    \r\n    struct RoyaltyDetails {\r\n        address creator;\r\n        bool isExcluded;\r\n        uint256 amount;\r\n    }\r\n\r\n    using Counters for Counters.Counter;\r\n    Counters.Counter private index;\r\n    \r\n    event CollectionCreated(\r\n        address indexed creator, \r\n        string name, \r\n        address indexed nftAddress, \r\n        string contractImage\r\n    );\r\n\r\n    event MarketItemCreated(\r\n        address indexed contractAddress, \r\n        uint256 tokenId, \r\n        uint256 price, \r\n        string currency,\r\n        uint256 itemId\r\n    );\r\n    \r\n    event CurrencySet(string symbol, address indexed contractAddress);\r\n    event Sold(\r\n        string symbol, \r\n        address indexed buyer, \r\n        address indexed seller, \r\n        uint256 itemId, \r\n        address indexed contractAddress, \r\n        uint256 tokenId\r\n    );\r\n    \r\n    constructor ( ) {\r\n        nft = new CreateNFT(\r\n            'Market Place Token', \r\n            'MPT', \r\n            'https://ipfs.infura.io/ipfs/Qme41RPVkLFB4KMSfs76cG8yZaB8Rvi25d7GquR2Ex1HJQ',\r\n            address(this),\r\n            address(this)\r\n        );\r\n\r\n        mptAddress = address(nft);\r\n\r\n        emit CollectionCreated(\r\n            address(this),\r\n            'Market Place Token', \r\n            mptAddress,\r\n            'https://ipfs.infura.io/ipfs/Qme41RPVkLFB4KMSfs76cG8yZaB8Rvi25d7GquR2Ex1HJQ'\r\n        );\r\n        \r\n        owner = msg.sender;\r\n    }\r\n\r\n    function createCollection (\r\n        string memory name, \r\n        string memory symbol, \r\n        string memory contractImageUrl\r\n    ) public {\r\n        nft = new CreateNFT(\r\n            name, \r\n            symbol, \r\n            contractImageUrl,\r\n            address(this),\r\n            msg.sender\r\n        );\r\n\r\n        emit CollectionCreated(msg.sender, name, address(nft), contractImageUrl);\r\n    }\r\n\r\n    function createMarketPlaceItem(\r\n        address contractAddress, \r\n        uint256 tokenId, \r\n        uint256 price, \r\n        string memory currency\r\n    ) public {\r\n        index.increment();\r\n        uint256 itemId = index.current();\r\n\r\n        ICreateNFT iCreateNFT = ICreateNFT(contractAddress);\r\n        address tokenOwner = iCreateNFT.ownerOf(tokenId);\r\n        \r\n        require(tokenOwner == msg.sender, 'Not NFT owner');\r\n        \r\n        MarketItemData storage marketItemData = marketItems[itemId];\r\n        \r\n        marketItemData.contractAddress = contractAddress;\r\n        marketItemData.price = price;\r\n        marketItemData.tokenId = tokenId;\r\n        marketItemData.currency = currency;\r\n        marketItemData.seller = msg.sender;\r\n        marketItemData.itemId = itemId;\r\n        \r\n        emit MarketItemCreated(contractAddress, tokenId, price, currency, itemId);\r\n    }\r\n\r\n    function buyItem(uint256 _itemId) public payable {\r\n        MarketItemData storage marketItem = marketItems[_itemId];\r\n\r\n        require(marketItem.isSold == false, 'NFT sold');\r\n        require(msg.value >= marketItem.price, 'Insufficient fund');\r\n\r\n        ICreateNFT iCreateNFT = ICreateNFT(marketItem.contractAddress);\r\n        (address creator, bool isExcluded, uint256 amount) = iCreateNFT.royaltyInfo(marketItem.tokenId);\r\n        \r\n        if(creator != marketItem.seller) {\r\n            if(!isExcluded) {\r\n                uint256 royaltyFee = (marketItem.price * amount) / 100;\r\n                payable(creator).transfer(royaltyFee);\r\n                payable(marketItem.seller).transfer(msg.value - royaltyFee);    \r\n            } else {\r\n                payable(marketItem.seller).transfer(msg.value);                    \r\n            }\r\n        } else {\r\n            payable(marketItem.seller).transfer(msg.value);\r\n        }\r\n        \r\n        iCreateNFT.safeTransferFrom(\r\n            marketItem.seller,\r\n            msg.sender,\r\n            marketItem.tokenId\r\n        );\r\n        \r\n        marketItem.buyer = msg.sender;\r\n        marketItem.isSold = true;\r\n        \r\n        emit Sold(\r\n            marketItem.currency, \r\n            marketItem.buyer, \r\n            marketItem.seller, \r\n            marketItem.itemId, \r\n            marketItem.contractAddress, \r\n            marketItem.tokenId\r\n        );\r\n    }\r\n    \r\n    function buyItem(uint256 _itemId, uint256 _amount) public {\r\n        MarketItemData storage marketItem = marketItems[_itemId];\r\n\r\n        require(marketItem.isSold == false, 'NFT sold');\r\n        require(marketItem.price <= _amount, 'Insufficient fund');\r\n\r\n        ICreateNFT iCreateNFT = ICreateNFT(marketItem.contractAddress);\r\n        (address creator, bool isExcluded, uint256 royaltyAmount) = iCreateNFT.royaltyInfo(marketItem.tokenId);\r\n        \r\n        if(creator != marketItem.seller) {\r\n            if(!isExcluded) {\r\n                uint256 royaltyFee = (marketItem.price * royaltyAmount) / 100;\r\n                IERC20(currencies[marketItem.currency]).transferFrom(msg.sender, creator, royaltyFee);\r\n                IERC20(currencies[marketItem.currency]).transferFrom(msg.sender, marketItem.seller, marketItem.price - royaltyFee);\r\n            } else {\r\n                IERC20(currencies[marketItem.currency]).transferFrom(msg.sender, marketItem.seller, marketItem.price);\r\n            }\r\n        } else {\r\n            IERC20(currencies[marketItem.currency]).transferFrom(msg.sender, marketItem.seller, marketItem.price);\r\n        }\r\n        \r\n        iCreateNFT.safeTransferFrom(\r\n            marketItem.seller,\r\n            msg.sender,\r\n            marketItem.tokenId\r\n        );\r\n        \r\n        marketItem.buyer = msg.sender;\r\n        marketItem.isSold = true;\r\n        \r\n        emit Sold(\r\n            marketItem.currency, \r\n            marketItem.buyer, \r\n            marketItem.seller, \r\n            marketItem.itemId, \r\n            marketItem.contractAddress, \r\n            marketItem.tokenId\r\n        );\r\n    }\r\n    \r\n    function setCurrency(string memory _symbol, address _contractAddress) public {\r\n        require(owner == msg.sender, 'Only owner allowed.');\r\n        \r\n        currencies[_symbol] = _contractAddress;\r\n        \r\n        emit CurrencySet(_symbol, _contractAddress);\r\n    }\r\n}\r\n",
  "sourcePath": "C:/Users/lenovo/Documents/nft-market-place/contracts/MarketPlace.sol",
  "compiler": {
    "name": "solc",
    "version": "0.8.6+commit.11564f7e.Emscripten.clang"
  },
  "schemaVersion": "3.4.1",
  "updatedAt": "2021-10-08T05:55:38.135Z",
  "networkType": "ethereum",
  "devdoc": {
    "kind": "dev",
    "methods": {},
    "version": 1
  },
  "userdoc": {
    "kind": "user",
    "methods": {},
    "version": 1
  }
}